{
  "_format": "hh-sol-artifact-1",
  "contractName": "RandomNumberGenerator",
  "sourceName": "contracts/RandomNumberGenerator.sol",
  "abi": [
    {
      "inputs": [
        {
          "internalType": "address",
          "name": "_lottery",
          "type": "address"
        }
      ],
      "stateMutability": "nonpayable",
      "type": "constructor"
    },
    {
      "inputs": [],
      "name": "currentLotteryId",
      "outputs": [
        {
          "internalType": "uint256",
          "name": "",
          "type": "uint256"
        }
      ],
      "stateMutability": "view",
      "type": "function"
    },
    {
      "inputs": [
        {
          "internalType": "uint256",
          "name": "lotteryId",
          "type": "uint256"
        }
      ],
      "name": "getRandomNumber",
      "outputs": [
        {
          "internalType": "uint256",
          "name": "randomness",
          "type": "uint256"
        }
      ],
      "stateMutability": "nonpayable",
      "type": "function"
    },
    {
      "inputs": [],
      "name": "lottery",
      "outputs": [
        {
          "internalType": "address",
          "name": "",
          "type": "address"
        }
      ],
      "stateMutability": "view",
      "type": "function"
    }
  ],
  "bytecode": "0x608060405234801561001057600080fd5b506040516103cd3803806103cd8339818101604052602081101561003357600080fd5b810190808051906020019092919050505080600260006101000a81548173ffffffffffffffffffffffffffffffffffffffff021916908373ffffffffffffffffffffffffffffffffffffffff16021790555050610338806100956000396000f3fe608060405234801561001057600080fd5b50600436106100415760003560e01c80636be4097c14610046578063b37217a414610064578063ba13a572146100a6575b600080fd5b61004e6100da565b6040518082815260200191505060405180910390f35b6100906004803603602081101561007a57600080fd5b81019080803590602001909291905050506100e0565b6040518082815260200191505060405180910390f35b6100ae6102dc565b604051808273ffffffffffffffffffffffffffffffffffffffff16815260200191505060405180910390f35b60005481565b6000600260009054906101000a900473ffffffffffffffffffffffffffffffffffffffff1673ffffffffffffffffffffffffffffffffffffffff163373ffffffffffffffffffffffffffffffffffffffff16146101a5576040517f08c379a000000000000000000000000000000000000000000000000000000000815260040180806020018281038252601e8152602001807f4f6e6c79204c6f74746572792063616e2063616c6c2066756e6374696f6e000081525060200191505060405180910390fd5b33600160006101000a81548173ffffffffffffffffffffffffffffffffffffffff021916908373ffffffffffffffffffffffffffffffffffffffff1602179055508160008190555060004233604051602001808381526020018273ffffffffffffffffffffffffffffffffffffffff1660601b8152601401925050506040516020818303038152906040528051906020012060001c9050600160009054906101000a900473ffffffffffffffffffffffffffffffffffffffff1673ffffffffffffffffffffffffffffffffffffffff16632046337e600054836040518363ffffffff1660e01b81526004018083815260200182815260200192505050600060405180830381600087803b1580156102bb57600080fd5b505af11580156102cf573d6000803e3d6000fd5b5050505080915050919050565b600260009054906101000a900473ffffffffffffffffffffffffffffffffffffffff168156fea2646970667358221220dc69f53c249d98f868b3127bcc31a2890a52ce8753a483be635be4b6aa5e444c64736f6c634300060c0033",
  "linkReferences": {},
  "deployedLinkReferences": {}
}