{
  "_format": "hh-sol-artifact-1",
  "contractName": "Lottery",
  "sourceName": "contracts/Lottery.sol",
  "abi": [
    {
      "inputs": [
        {
          "internalType": "address",
          "name": "_cake",
          "type": "address"
        },
        {
          "internalType": "address",
          "name": "_timer",
          "type": "address"
        },
        {
          "internalType": "uint8",
          "name": "_sizeOfLotteryNumbers",
          "type": "uint8"
        },
        {
          "internalType": "uint16",
          "name": "_maxValidNumberRange",
          "type": "uint16"
        },
        {
          "internalType": "uint8",
          "name": "_bucketOneMaxNumber",
          "type": "uint8"
        },
        {
          "internalType": "uint8",
          "name": "_bucketTwoMaxNumber",
          "type": "uint8"
        },
        {
          "internalType": "uint8",
          "name": "_discountForBucketOne",
          "type": "uint8"
        },
        {
          "internalType": "uint8",
          "name": "_discountForBucketTwo",
          "type": "uint8"
        },
        {
          "internalType": "uint8",
          "name": "_discountForBucketThree",
          "type": "uint8"
        }
      ],
      "stateMutability": "nonpayable",
      "type": "constructor"
    },
    {
      "anonymous": false,
      "inputs": [
        {
          "indexed": false,
          "internalType": "uint256",
          "name": "lotteryId",
          "type": "uint256"
        },
        {
          "indexed": false,
          "internalType": "uint256",
          "name": "ticketSupply",
          "type": "uint256"
        }
      ],
      "name": "LotteryClose",
      "type": "event"
    },
    {
      "anonymous": false,
      "inputs": [
        {
          "indexed": false,
          "internalType": "uint256",
          "name": "lotteryId",
          "type": "uint256"
        },
        {
          "indexed": false,
          "internalType": "uint256",
          "name": "ticketSupply",
          "type": "uint256"
        }
      ],
      "name": "LotteryOpen",
      "type": "event"
    },
    {
      "anonymous": false,
      "inputs": [
        {
          "indexed": true,
          "internalType": "address",
          "name": "minter",
          "type": "address"
        },
        {
          "indexed": false,
          "internalType": "uint256[]",
          "name": "ticketIDs",
          "type": "uint256[]"
        },
        {
          "indexed": false,
          "internalType": "uint16[]",
          "name": "numbers",
          "type": "uint16[]"
        },
        {
          "indexed": false,
          "internalType": "uint256",
          "name": "totalCost",
          "type": "uint256"
        },
        {
          "indexed": false,
          "internalType": "uint256",
          "name": "discount",
          "type": "uint256"
        },
        {
          "indexed": false,
          "internalType": "uint256",
          "name": "pricePaid",
          "type": "uint256"
        }
      ],
      "name": "NewBatchMint",
      "type": "event"
    },
    {
      "anonymous": false,
      "inputs": [
        {
          "indexed": true,
          "internalType": "address",
          "name": "previousOwner",
          "type": "address"
        },
        {
          "indexed": true,
          "internalType": "address",
          "name": "newOwner",
          "type": "address"
        }
      ],
      "name": "OwnershipTransferred",
      "type": "event"
    },
    {
      "anonymous": false,
      "inputs": [
        {
          "indexed": false,
          "internalType": "uint256",
          "name": "lotteryId",
          "type": "uint256"
        },
        {
          "indexed": false,
          "internalType": "bytes32",
          "name": "requestId",
          "type": "bytes32"
        }
      ],
      "name": "RequestNumbers",
      "type": "event"
    },
    {
      "anonymous": false,
      "inputs": [
        {
          "indexed": false,
          "internalType": "address",
          "name": "admin",
          "type": "address"
        },
        {
          "indexed": false,
          "internalType": "uint8",
          "name": "bucketOneMax",
          "type": "uint8"
        },
        {
          "indexed": false,
          "internalType": "uint8",
          "name": "bucketTwoMax",
          "type": "uint8"
        },
        {
          "indexed": false,
          "internalType": "uint8",
          "name": "discountForBucketOne",
          "type": "uint8"
        },
        {
          "indexed": false,
          "internalType": "uint8",
          "name": "discountForBucketTwo",
          "type": "uint8"
        },
        {
          "indexed": false,
          "internalType": "uint8",
          "name": "discountForBucketThree",
          "type": "uint8"
        }
      ],
      "name": "UpdatedBuckets",
      "type": "event"
    },
    {
      "anonymous": false,
      "inputs": [
        {
          "indexed": false,
          "internalType": "address",
          "name": "admin",
          "type": "address"
        },
        {
          "indexed": false,
          "internalType": "uint16",
          "name": "newMaxRange",
          "type": "uint16"
        }
      ],
      "name": "UpdatedMaxRange",
      "type": "event"
    },
    {
      "anonymous": false,
      "inputs": [
        {
          "indexed": false,
          "internalType": "address",
          "name": "admin",
          "type": "address"
        },
        {
          "indexed": false,
          "internalType": "uint8",
          "name": "newLotterySize",
          "type": "uint8"
        }
      ],
      "name": "UpdatedSizeOfLottery",
      "type": "event"
    },
    {
      "inputs": [
        {
          "internalType": "uint256",
          "name": "_lotteryId",
          "type": "uint256"
        },
        {
          "internalType": "uint8",
          "name": "_numberOfTickets",
          "type": "uint8"
        },
        {
          "internalType": "uint16[]",
          "name": "_chosenNumbersForEachTicket",
          "type": "uint16[]"
        }
      ],
      "name": "batchBuyLottoTicket",
      "outputs": [],
      "stateMutability": "nonpayable",
      "type": "function"
    },
    {
      "inputs": [
        {
          "internalType": "uint256",
          "name": "_lotteryId",
          "type": "uint256"
        },
        {
          "internalType": "uint256[]",
          "name": "_tokeIds",
          "type": "uint256[]"
        }
      ],
      "name": "batchClaimRewards",
      "outputs": [],
      "stateMutability": "nonpayable",
      "type": "function"
    },
    {
      "inputs": [],
      "name": "bucketOneMax_",
      "outputs": [
        {
          "internalType": "uint8",
          "name": "",
          "type": "uint8"
        }
      ],
      "stateMutability": "view",
      "type": "function"
    },
    {
      "inputs": [],
      "name": "bucketTwoMax_",
      "outputs": [
        {
          "internalType": "uint8",
          "name": "",
          "type": "uint8"
        }
      ],
      "stateMutability": "view",
      "type": "function"
    },
    {
      "inputs": [
        {
          "internalType": "uint256",
          "name": "_lotteryId",
          "type": "uint256"
        },
        {
          "internalType": "uint256",
          "name": "_tokenId",
          "type": "uint256"
        }
      ],
      "name": "claimReward",
      "outputs": [],
      "stateMutability": "nonpayable",
      "type": "function"
    },
    {
      "inputs": [
        {
          "internalType": "uint256",
          "name": "_lotteryId",
          "type": "uint256"
        },
        {
          "internalType": "uint256",
          "name": "_numberOfTickets",
          "type": "uint256"
        }
      ],
      "name": "costToBuyTickets",
      "outputs": [
        {
          "internalType": "uint256",
          "name": "totalCost",
          "type": "uint256"
        }
      ],
      "stateMutability": "view",
      "type": "function"
    },
    {
      "inputs": [
        {
          "internalType": "uint256",
          "name": "_lotteryId",
          "type": "uint256"
        },
        {
          "internalType": "uint256",
          "name": "_numberOfTickets",
          "type": "uint256"
        }
      ],
      "name": "costToBuyTicketsWithDiscount",
      "outputs": [
        {
          "internalType": "uint256",
          "name": "cost",
          "type": "uint256"
        },
        {
          "internalType": "uint256",
          "name": "discount",
          "type": "uint256"
        },
        {
          "internalType": "uint256",
          "name": "costWithDiscount",
          "type": "uint256"
        }
      ],
      "stateMutability": "view",
      "type": "function"
    },
    {
      "inputs": [
        {
          "internalType": "uint8[]",
          "name": "_prizeDistribution",
          "type": "uint8[]"
        },
        {
          "internalType": "uint256",
          "name": "_prizePoolInCake",
          "type": "uint256"
        },
        {
          "internalType": "uint256",
          "name": "_costPerTicket",
          "type": "uint256"
        },
        {
          "internalType": "uint256",
          "name": "_startingTimestamp",
          "type": "uint256"
        },
        {
          "internalType": "uint256",
          "name": "_closingTimestamp",
          "type": "uint256"
        }
      ],
      "name": "createNewLotto",
      "outputs": [
        {
          "internalType": "uint256",
          "name": "lotteryId",
          "type": "uint256"
        }
      ],
      "stateMutability": "nonpayable",
      "type": "function"
    },
    {
      "inputs": [],
      "name": "discountForBucketOne_",
      "outputs": [
        {
          "internalType": "uint8",
          "name": "",
          "type": "uint8"
        }
      ],
      "stateMutability": "view",
      "type": "function"
    },
    {
      "inputs": [],
      "name": "discountForBucketThree_",
      "outputs": [
        {
          "internalType": "uint8",
          "name": "",
          "type": "uint8"
        }
      ],
      "stateMutability": "view",
      "type": "function"
    },
    {
      "inputs": [],
      "name": "discountForBucketTwo_",
      "outputs": [
        {
          "internalType": "uint8",
          "name": "",
          "type": "uint8"
        }
      ],
      "stateMutability": "view",
      "type": "function"
    },
    {
      "inputs": [
        {
          "internalType": "uint256",
          "name": "_lotteryId",
          "type": "uint256"
        }
      ],
      "name": "drawWinningNumbers",
      "outputs": [],
      "stateMutability": "nonpayable",
      "type": "function"
    },
    {
      "inputs": [
        {
          "internalType": "uint256",
          "name": "_lotteryId",
          "type": "uint256"
        }
      ],
      "name": "getBasicLottoInfo",
      "outputs": [
        {
          "components": [
            {
              "internalType": "uint256",
              "name": "lotteryID",
              "type": "uint256"
            },
            {
              "internalType": "enum Lottery.Status",
              "name": "lotteryStatus",
              "type": "uint8"
            },
            {
              "internalType": "uint256",
              "name": "prizePoolInCake",
              "type": "uint256"
            },
            {
              "internalType": "uint256",
              "name": "costPerTicket",
              "type": "uint256"
            },
            {
              "internalType": "uint8[]",
              "name": "prizeDistribution",
              "type": "uint8[]"
            },
            {
              "internalType": "uint256",
              "name": "startingTimestamp",
              "type": "uint256"
            },
            {
              "internalType": "uint256",
              "name": "closingTimestamp",
              "type": "uint256"
            },
            {
              "internalType": "uint16[]",
              "name": "winningNumbers",
              "type": "uint16[]"
            }
          ],
          "internalType": "struct Lottery.LottoInfo",
          "name": "",
          "type": "tuple"
        }
      ],
      "stateMutability": "view",
      "type": "function"
    },
    {
      "inputs": [],
      "name": "getCurrentTime",
      "outputs": [
        {
          "internalType": "uint256",
          "name": "",
          "type": "uint256"
        }
      ],
      "stateMutability": "view",
      "type": "function"
    },
    {
      "inputs": [],
      "name": "getMaxRange",
      "outputs": [
        {
          "internalType": "uint16",
          "name": "",
          "type": "uint16"
        }
      ],
      "stateMutability": "view",
      "type": "function"
    },
    {
      "inputs": [
        {
          "internalType": "address",
          "name": "_lotteryNFT",
          "type": "address"
        },
        {
          "internalType": "address",
          "name": "_IRandomNumberGenerator",
          "type": "address"
        }
      ],
      "name": "initialize",
      "outputs": [],
      "stateMutability": "nonpayable",
      "type": "function"
    },
    {
      "inputs": [],
      "name": "maxValidRange_",
      "outputs": [
        {
          "internalType": "uint16",
          "name": "",
          "type": "uint16"
        }
      ],
      "stateMutability": "view",
      "type": "function"
    },
    {
      "inputs": [
        {
          "internalType": "uint256",
          "name": "_lotteryId",
          "type": "uint256"
        },
        {
          "internalType": "uint256",
          "name": "_randomNumber",
          "type": "uint256"
        }
      ],
      "name": "numbersDrawn",
      "outputs": [],
      "stateMutability": "nonpayable",
      "type": "function"
    },
    {
      "inputs": [],
      "name": "owner",
      "outputs": [
        {
          "internalType": "address",
          "name": "",
          "type": "address"
        }
      ],
      "stateMutability": "view",
      "type": "function"
    },
    {
      "inputs": [],
      "name": "renounceOwnership",
      "outputs": [],
      "stateMutability": "nonpayable",
      "type": "function"
    },
    {
      "inputs": [
        {
          "internalType": "uint256",
          "name": "time",
          "type": "uint256"
        }
      ],
      "name": "setCurrentTime",
      "outputs": [],
      "stateMutability": "nonpayable",
      "type": "function"
    },
    {
      "inputs": [],
      "name": "sizeOfLottery_",
      "outputs": [
        {
          "internalType": "uint8",
          "name": "",
          "type": "uint8"
        }
      ],
      "stateMutability": "view",
      "type": "function"
    },
    {
      "inputs": [],
      "name": "timerAddress",
      "outputs": [
        {
          "internalType": "address",
          "name": "",
          "type": "address"
        }
      ],
      "stateMutability": "view",
      "type": "function"
    },
    {
      "inputs": [
        {
          "internalType": "address",
          "name": "newOwner",
          "type": "address"
        }
      ],
      "name": "transferOwnership",
      "outputs": [],
      "stateMutability": "nonpayable",
      "type": "function"
    },
    {
      "inputs": [
        {
          "internalType": "uint8",
          "name": "_bucketOneMax",
          "type": "uint8"
        },
        {
          "internalType": "uint8",
          "name": "_bucketTwoMax",
          "type": "uint8"
        },
        {
          "internalType": "uint8",
          "name": "_discountForBucketOne",
          "type": "uint8"
        },
        {
          "internalType": "uint8",
          "name": "_discountForBucketTwo",
          "type": "uint8"
        },
        {
          "internalType": "uint8",
          "name": "_discountForBucketThree",
          "type": "uint8"
        }
      ],
      "name": "updateBuckets",
      "outputs": [],
      "stateMutability": "nonpayable",
      "type": "function"
    },
    {
      "inputs": [
        {
          "internalType": "uint16",
          "name": "_newMaxRange",
          "type": "uint16"
        }
      ],
      "name": "updateMaxRange",
      "outputs": [],
      "stateMutability": "nonpayable",
      "type": "function"
    },
    {
      "inputs": [
        {
          "internalType": "uint8",
          "name": "_newSize",
          "type": "uint8"
        }
      ],
      "name": "updateSizeOfLottery",
      "outputs": [],
      "stateMutability": "nonpayable",
      "type": "function"
    },
    {
      "inputs": [
        {
          "internalType": "uint256",
          "name": "_amount",
          "type": "uint256"
        }
      ],
      "name": "withdrawCake",
      "outputs": [],
      "stateMutability": "nonpayable",
      "type": "function"
    }
  ],
  "bytecode": "0x60806040523480156200001157600080fd5b506040516200658838038062006588833981810160405281019062000037919062000457565b8760006200004a6200040a60201b60201c565b9050806000806101000a81548173ffffffffffffffffffffffffffffffffffffffff021916908373ffffffffffffffffffffffffffffffffffffffff1602179055508073ffffffffffffffffffffffffffffffffffffffff16600073ffffffffffffffffffffffffffffffffffffffff167f8be0079c531659141344cd1fd0a4f28419497f9722a3daafe3b4186f6b6457e060405160405180910390a35080600160006101000a81548173ffffffffffffffffffffffffffffffffffffffff021916908373ffffffffffffffffffffffffffffffffffffffff1602179055505060008560ff161415801562000143575060008460ff1614155b62000185576040517f08c379a00000000000000000000000000000000000000000000000000000000081526004016200017c90620006e0565b60405180910390fd5b8360ff168560ff1610620001d0576040517f08c379a0000000000000000000000000000000000000000000000000000000008152600401620001c7906200067a565b60405180910390fd5b8160ff168360ff16108015620001eb57508060ff168260ff16105b6200022d576040517f08c379a000000000000000000000000000000000000000000000000000000000815260040162000224906200069c565b60405180910390fd5b600073ffffffffffffffffffffffffffffffffffffffff168973ffffffffffffffffffffffffffffffffffffffff161415620002a0576040517f08c379a00000000000000000000000000000000000000000000000000000000081526004016200029790620006be565b60405180910390fd5b60008760ff1614158015620002ba575060008661ffff1614155b620002fc576040517f08c379a0000000000000000000000000000000000000000000000000000000008152600401620002f39062000702565b60405180910390fd5b88600260006101000a81548173ffffffffffffffffffffffffffffffffffffffff021916908373ffffffffffffffffffffffffffffffffffffffff16021790555086600760006101000a81548160ff021916908360ff16021790555085600760016101000a81548161ffff021916908361ffff16021790555084600760036101000a81548160ff021916908360ff16021790555083600760046101000a81548160ff021916908360ff16021790555082600760056101000a81548160ff021916908360ff16021790555081600760066101000a81548160ff021916908360ff160217905550806007806101000a81548160ff021916908360ff160217905550505050505050505050620007d2565b600033905090565b600081519050620004238162000784565b92915050565b6000815190506200043a816200079e565b92915050565b6000815190506200045181620007b8565b92915050565b60008060008060008060008060006101208a8c0312156200047757600080fd5b6000620004878c828d0162000412565b99505060206200049a8c828d0162000412565b9850506040620004ad8c828d0162000440565b9750506060620004c08c828d0162000429565b9650506080620004d38c828d0162000440565b95505060a0620004e68c828d0162000440565b94505060c0620004f98c828d0162000440565b93505060e06200050c8c828d0162000440565b925050610100620005208c828d0162000440565b9150509295985092959850929598565b60006200053f601a8362000724565b91507f4275636b6574206f6e65206d75737420626520736d616c6c65720000000000006000830152602082019050919050565b60006200058160178362000724565b91507f446973636f756e7473206d75737420696e6372656173650000000000000000006000830152602082019050919050565b6000620005c3601d8362000724565b91507f436f6e7472616374732063616e6e6f74206265203020616464726573730000006000830152602082019050919050565b60006200060560188362000724565b91507f4275636b65742072616e67652063616e6e6f74206265203000000000000000006000830152602082019050919050565b60006200064760198362000724565b91507f4c6f74746572792073657475702063616e6e6f742062652030000000000000006000830152602082019050919050565b60006020820190508181036000830152620006958162000530565b9050919050565b60006020820190508181036000830152620006b78162000572565b9050919050565b60006020820190508181036000830152620006d981620005b4565b9050919050565b60006020820190508181036000830152620006fb81620005f6565b9050919050565b600060208201905081810360008301526200071d8162000638565b9050919050565b600082825260208201905092915050565b6000620007428262000757565b9050919050565b600061ffff82169050919050565b600073ffffffffffffffffffffffffffffffffffffffff82169050919050565b600060ff82169050919050565b6200078f8162000735565b81146200079b57600080fd5b50565b620007a98162000749565b8114620007b557600080fd5b50565b620007c38162000777565b8114620007cf57600080fd5b50565b615da680620007e26000396000f3fe608060405234801561001057600080fd5b50600436106101c45760003560e01c80638324f7c5116100f9578063add5edf011610097578063da47675511610071578063da47675514610493578063dccda096146104c3578063e59bbab5146104f5578063f2fde38b14610513576101c4565b8063add5edf01461043d578063c8cfd9021461045b578063d062b57c14610477576101c4565b80638da5cb5b116100d35780638da5cb5b146103c757806391a28cdd146103e55780639c21660214610401578063a624aa1b1461041f576101c4565b80638324f7c51461035d57806386bb8f371461038d5780638be852b1146103a9576101c4565b806329cb924d11610166578063485cc95511610140578063485cc955146102eb5780634f7d93db14610307578063715018a61461033757806376674b8f14610341576101c4565b806329cb924d14610291578063350d9251146102af5780633c309fe7146102cd576101c4565b80631c39c38d116101a25780631c39c38d1461021f5780632046337e1461023d57806320dcba201461025957806322f8e56614610275576101c4565b8063075dc415146101c95780630773aa46146101e75780630c97fd4514610203575b600080fd5b6101d161052f565b6040516101de9190615a1e565b60405180910390f35b61020160048036038101906101fc9190614371565b610542565b005b61021d600480360381019061021891906141d0565b6106c3565b005b610227610908565b6040516102349190615245565b60405180910390f35b6102576004803603810190610252919061427a565b61092e565b005b610273600480360381019061026e91906141d0565b610b81565b005b61028f600480360381019061028a91906141d0565b610cb0565b005b610299610d9c565b6040516102a6919061597a565b60405180910390f35b6102b7610ea1565b6040516102c49190615a1e565b60405180910390f35b6102d5610eb4565b6040516102e29190615a1e565b60405180910390f35b6103056004803603810190610300919061402e565b610ec7565b005b610321600480360381019061031c919061427a565b61115b565b60405161032e919061597a565b60405180910390f35b61033f611193565b005b61035b60048036038101906103569190614222565b6112cd565b005b610377600480360381019061037291906140ec565b6119e1565b604051610384919061597a565b60405180910390f35b6103a760048036038101906103a2919061427a565b611eac565b005b6103b1612447565b6040516103be9190615a1e565b60405180910390f35b6103cf61245a565b6040516103dc9190615245565b60405180910390f35b6103ff60048036038101906103fa919061439a565b612483565b005b6104096126c5565b6040516104169190615a1e565b60405180910390f35b6104276126d6565b604051610434919061595f565b60405180910390f35b6104456126ea565b6040516104529190615a1e565b60405180910390f35b61047560048036038101906104709190614305565b6126fd565b005b610491600480360381019061048c91906141a7565b612cd7565b005b6104ad60048036038101906104a891906141d0565b612e5f565b6040516104ba919061593d565b60405180910390f35b6104dd60048036038101906104d8919061427a565b612fea565b6040516104ec939291906159be565b60405180910390f35b6104fd6130a4565b60405161050a919061595f565b60405180910390f35b61052d60048036038101906105289190613fdc565b6130bc565b005b600760009054906101000a900460ff1681565b61054a613265565b73ffffffffffffffffffffffffffffffffffffffff1661056861245a565b73ffffffffffffffffffffffffffffffffffffffff16146105be576040517f08c379a00000000000000000000000000000000000000000000000000000000081526004016105b5906157fd565b60405180910390fd5b8060ff16600760009054906101000a900460ff1660ff161415610616576040517f08c379a000000000000000000000000000000000000000000000000000000000815260040161060d9061571d565b60405180910390fd5b6000600760009054906101000a900460ff1660ff16141561066c576040517f08c379a0000000000000000000000000000000000000000000000000000000008152600401610663906155dd565b60405180910390fd5b80600760006101000a81548160ff021916908360ff1602179055507f390ce0ae29f1f6d8a7be889544606cb23b660dd44710ecbe1408aaed6356eba333826040516106b8929190615345565b60405180910390a150565b6106cb613265565b73ffffffffffffffffffffffffffffffffffffffff166106e961245a565b73ffffffffffffffffffffffffffffffffffffffff161461073f576040517f08c379a0000000000000000000000000000000000000000000000000000000008152600401610736906157fd565b60405180910390fd5b610747610d9c565b6008600083815260200190815260200160002060060154111561079f576040517f08c379a00000000000000000000000000000000000000000000000000000000081526004016107969061583d565b60405180910390fd5b600160038111156107ac57fe5b6008600083815260200190815260200160002060010160009054906101000a900460ff1660038111156107db57fe5b1461081b576040517f08c379a00000000000000000000000000000000000000000000000000000000081526004016108129061567d565b60405180910390fd5b60026008600083815260200190815260200160002060010160006101000a81548160ff0219169083600381111561084e57fe5b02179055506000600460009054906101000a900473ffffffffffffffffffffffffffffffffffffffff1673ffffffffffffffffffffffffffffffffffffffff1663b37217a4836040518263ffffffff1660e01b81526004016108b0919061597a565b602060405180830381600087803b1580156108ca57600080fd5b505af11580156108de573d6000803e3d6000fd5b505050506040513d601f19601f8201168201806040525081019061090291906141f9565b90505050565b600160009054906101000a900473ffffffffffffffffffffffffffffffffffffffff1681565b600460009054906101000a900473ffffffffffffffffffffffffffffffffffffffff1673ffffffffffffffffffffffffffffffffffffffff163373ffffffffffffffffffffffffffffffffffffffff16146109be576040517f08c379a00000000000000000000000000000000000000000000000000000000081526004016109b59061549d565b60405180910390fd5b600260038111156109cb57fe5b6008600084815260200190815260200160002060010160009054906101000a900460ff1660038111156109fa57fe5b14610a3a576040517f08c379a0000000000000000000000000000000000000000000000000000000008152600401610a319061555d565b60405180910390fd5b60036008600084815260200190815260200160002060010160006101000a81548160ff02191690836003811115610a6d57fe5b0217905550610a7b8161326d565b600860008481526020019081526020016000206007019080519060200190610aa4929190613b5e565b507f3728e75294796694d59d2ffced9c394279baf7b9ebd2702db43f5f04bac6792982600360009054906101000a900473ffffffffffffffffffffffffffffffffffffffff1673ffffffffffffffffffffffffffffffffffffffff1663c4e41b226040518163ffffffff1660e01b815260040160206040518083038186803b158015610b2f57600080fd5b505afa158015610b43573d6000803e3d6000fd5b505050506040513d601f19601f82011682018060405250810190610b6791906141f9565b604051610b75929190615995565b60405180910390a15050565b610b89613265565b73ffffffffffffffffffffffffffffffffffffffff16610ba761245a565b73ffffffffffffffffffffffffffffffffffffffff1614610bfd576040517f08c379a0000000000000000000000000000000000000000000000000000000008152600401610bf4906157fd565b60405180910390fd5b600260009054906101000a900473ffffffffffffffffffffffffffffffffffffffff1673ffffffffffffffffffffffffffffffffffffffff1663a9059cbb33836040518363ffffffff1660e01b8152600401610c5a9291906152c0565b602060405180830381600087803b158015610c7457600080fd5b505af1158015610c88573d6000803e3d6000fd5b505050506040513d601f19601f82011682018060405250810190610cac919061417e565b5050565b600073ffffffffffffffffffffffffffffffffffffffff16600160009054906101000a900473ffffffffffffffffffffffffffffffffffffffff1673ffffffffffffffffffffffffffffffffffffffff161415610d0c57600080fd5b600160009054906101000a900473ffffffffffffffffffffffffffffffffffffffff1673ffffffffffffffffffffffffffffffffffffffff166322f8e566826040518263ffffffff1660e01b8152600401610d67919061597a565b600060405180830381600087803b158015610d8157600080fd5b505af1158015610d95573d6000803e3d6000fd5b5050505050565b60008073ffffffffffffffffffffffffffffffffffffffff16600160009054906101000a900473ffffffffffffffffffffffffffffffffffffffff1673ffffffffffffffffffffffffffffffffffffffff1614610e9a57600160009054906101000a900473ffffffffffffffffffffffffffffffffffffffff1673ffffffffffffffffffffffffffffffffffffffff166329cb924d6040518163ffffffff1660e01b815260040160206040518083038186803b158015610e5b57600080fd5b505afa158015610e6f573d6000803e3d6000fd5b505050506040513d601f19601f82011682018060405250810190610e9391906141f9565b9050610e9e565b4290505b90565b600760039054906101000a900460ff1681565b600760069054906101000a900460ff1681565b600060159054906101000a900460ff1680610ee65750610ee561337f565b5b80610efe5750600060149054906101000a900460ff16155b610f3d576040517f08c379a0000000000000000000000000000000000000000000000000000000008152600401610f349061577d565b60405180910390fd5b60008060159054906101000a900460ff161590508015610f8e576001600060156101000a81548160ff0219169083151502179055506001600060146101000a81548160ff0219169083151502179055505b610f96613265565b73ffffffffffffffffffffffffffffffffffffffff16610fb461245a565b73ffffffffffffffffffffffffffffffffffffffff161461100a576040517f08c379a0000000000000000000000000000000000000000000000000000000008152600401611001906157fd565b60405180910390fd5b600073ffffffffffffffffffffffffffffffffffffffff168373ffffffffffffffffffffffffffffffffffffffff16141580156110745750600073ffffffffffffffffffffffffffffffffffffffff168273ffffffffffffffffffffffffffffffffffffffff1614155b6110b3576040517f08c379a00000000000000000000000000000000000000000000000000000000081526004016110aa906157bd565b60405180910390fd5b82600360006101000a81548173ffffffffffffffffffffffffffffffffffffffff021916908373ffffffffffffffffffffffffffffffffffffffff16021790555081600460006101000a81548173ffffffffffffffffffffffffffffffffffffffff021916908373ffffffffffffffffffffffffffffffffffffffff16021790555080156111565760008060156101000a81548160ff0219169083151502179055505b505050565b6000806008600085815260200190815260200160002060030154905061118a838261339090919063ffffffff16565b91505092915050565b61119b613265565b73ffffffffffffffffffffffffffffffffffffffff166111b961245a565b73ffffffffffffffffffffffffffffffffffffffff161461120f576040517f08c379a0000000000000000000000000000000000000000000000000000000008152600401611206906157fd565b60405180910390fd5b600073ffffffffffffffffffffffffffffffffffffffff1660008054906101000a900473ffffffffffffffffffffffffffffffffffffffff1673ffffffffffffffffffffffffffffffffffffffff167f8be0079c531659141344cd1fd0a4f28419497f9722a3daafe3b4186f6b6457e060405160405180910390a360008060006101000a81548173ffffffffffffffffffffffffffffffffffffffff021916908373ffffffffffffffffffffffffffffffffffffffff160217905550565b6112ec3373ffffffffffffffffffffffffffffffffffffffff16613400565b1561132c576040517f08c379a00000000000000000000000000000000000000000000000000000000081526004016113239061581d565b60405180910390fd5b3273ffffffffffffffffffffffffffffffffffffffff163373ffffffffffffffffffffffffffffffffffffffff161461139a576040517f08c379a00000000000000000000000000000000000000000000000000000000081526004016113919061547d565b60405180910390fd5b60328282905011156113e1576040517f08c379a00000000000000000000000000000000000000000000000000000000081526004016113d8906156dd565b60405180910390fd5b6113e9610d9c565b60086000858152602001908152602001600020600601541115611441576040517f08c379a00000000000000000000000000000000000000000000000000000000081526004016114389061557d565b60405180910390fd5b60038081111561144d57fe5b6008600085815260200190815260200160002060010160009054906101000a900460ff16600381111561147c57fe5b146114bc576040517f08c379a00000000000000000000000000000000000000000000000000000000081526004016114b3906158fd565b60405180910390fd5b6000805b8383905081101561198d573373ffffffffffffffffffffffffffffffffffffffff16600360009054906101000a900473ffffffffffffffffffffffffffffffffffffffff1673ffffffffffffffffffffffffffffffffffffffff16639d75536786868581811061152c57fe5b905060200201356040518263ffffffff1660e01b815260040161154f919061597a565b60206040518083038186803b15801561156757600080fd5b505afa15801561157b573d6000803e3d6000fd5b505050506040513d601f19601f8201168201806040525081019061159f9190614005565b73ffffffffffffffffffffffffffffffffffffffff16146115f5576040517f08c379a00000000000000000000000000000000000000000000000000000000081526004016115ec9061573d565b60405180910390fd5b600360009054906101000a900473ffffffffffffffffffffffffffffffffffffffff1673ffffffffffffffffffffffffffffffffffffffff16639191a7ea85858481811061163f57fe5b905060200201356040518263ffffffff1660e01b8152600401611662919061597a565b60206040518083038186803b15801561167a57600080fd5b505afa15801561168e573d6000803e3d6000fd5b505050506040513d601f19601f820116820180604052508101906116b2919061417e565b156116bc57611980565b600360009054906101000a900473ffffffffffffffffffffffffffffffffffffffff1673ffffffffffffffffffffffffffffffffffffffff1663ed06a74085858481811061170657fe5b90506020020135876040518363ffffffff1660e01b815260040161172b929190615995565b602060405180830381600087803b15801561174557600080fd5b505af1158015611759573d6000803e3d6000fd5b505050506040513d601f19601f8201168201806040525081019061177d919061417e565b6117bc576040517f08c379a00000000000000000000000000000000000000000000000000000000081526004016117b3906155fd565b60405180910390fd5b6000611915600360009054906101000a900473ffffffffffffffffffffffffffffffffffffffff1673ffffffffffffffffffffffffffffffffffffffff16639839eafd87878681811061180b57fe5b905060200201356040518263ffffffff1660e01b815260040161182e919061597a565b60006040518083038186803b15801561184657600080fd5b505afa15801561185a573d6000803e3d6000fd5b505050506040513d6000823e3d601f19601f82011682018060405250810190611883919061406a565b6008600089815260200190815260200160002060070180548060200260200160405190810160405280929190818152602001828054801561190b57602002820191906000526020600020906000905b82829054906101000a900461ffff1661ffff16815260200190600201906020826001010492830192600103820291508084116118d25790505b5050505050613413565b905060006119238288613475565b905061194e81600860008a81526020019081526020016000206002015461352a90919063ffffffff16565b600860008981526020019081526020016000206002018190555061197b818561357a90919063ffffffff16565b935050505b80806001019150506114c0565b506119db3382600260009054906101000a900473ffffffffffffffffffffffffffffffffffffffff1673ffffffffffffffffffffffffffffffffffffffff166135cf9092919063ffffffff16565b50505050565b60006119eb613265565b73ffffffffffffffffffffffffffffffffffffffff16611a0961245a565b73ffffffffffffffffffffffffffffffffffffffff1614611a5f576040517f08c379a0000000000000000000000000000000000000000000000000000000008152600401611a56906157fd565b60405180910390fd5b600760009054906101000a900460ff1660ff168787905014611ab6576040517f08c379a0000000000000000000000000000000000000000000000000000000008152600401611aad906154dd565b60405180910390fd5b6000805b88889050811015611b0a57611afb898983818110611ad457fe5b9050602002016020810190611ae99190614371565b60ff168361357a90919063ffffffff16565b91508080600101915050611aba565b5060648114611b4e576040517f08c379a0000000000000000000000000000000000000000000000000000000008152600401611b459061591d565b60405180910390fd5b60008614158015611b60575060008514155b611b9f576040517f08c379a0000000000000000000000000000000000000000000000000000000008152600401611b96906154bd565b60405180910390fd5b60008414158015611baf57508284105b611bee576040517f08c379a0000000000000000000000000000000000000000000000000000000008152600401611be5906158bd565b60405180910390fd5b611c04600160065461357a90919063ffffffff16565b60068190555060065491506060600760009054906101000a900460ff1660ff1667ffffffffffffffff81118015611c3a57600080fd5b50604051908082528060200260200182016040528015611c695781602001602082028036833780820191505090505b5090506000611c76610d9c565b8610611c855760019050611c8a565b600090505b611c92613c08565b604051806101000160405280868152602001836003811115611cb057fe5b81526020018a81526020018981526020018c8c80806020026020016040519081016040528093929190818152602001838360200280828437600081840152601f19601f82011690508083019250505050505050815260200188815260200187815260200184815250905080600860008781526020019081526020016000206000820151816000015560208201518160010160006101000a81548160ff02191690836003811115611d5c57fe5b021790555060408201518160020155606082015181600301556080820151816004019080519060200190611d91929190613c58565b5060a0820151816005015560c0820151816006015560e0820151816007019080519060200190611dc2929190613b5e565b509050507fce7176db4e5b6d07ad0f0ecf9523a01d98aa268b888a199592cb5b1e40615c4685600360009054906101000a900473ffffffffffffffffffffffffffffffffffffffff1673ffffffffffffffffffffffffffffffffffffffff1663c4e41b226040518163ffffffff1660e01b815260040160206040518083038186803b158015611e5057600080fd5b505afa158015611e64573d6000803e3d6000fd5b505050506040513d601f19601f82011682018060405250810190611e8891906141f9565b604051611e96929190615995565b60405180910390a1505050509695505050505050565b611ecb3373ffffffffffffffffffffffffffffffffffffffff16613400565b15611f0b576040517f08c379a0000000000000000000000000000000000000000000000000000000008152600401611f029061581d565b60405180910390fd5b3273ffffffffffffffffffffffffffffffffffffffff163373ffffffffffffffffffffffffffffffffffffffff1614611f79576040517f08c379a0000000000000000000000000000000000000000000000000000000008152600401611f709061547d565b60405180910390fd5b611f81610d9c565b60086000848152602001908152602001600020600601541115611fd9576040517f08c379a0000000000000000000000000000000000000000000000000000000008152600401611fd09061557d565b60405180910390fd5b600380811115611fe557fe5b6008600084815260200190815260200160002060010160009054906101000a900460ff16600381111561201457fe5b14612054576040517f08c379a000000000000000000000000000000000000000000000000000000000815260040161204b906158fd565b60405180910390fd5b3373ffffffffffffffffffffffffffffffffffffffff16600360009054906101000a900473ffffffffffffffffffffffffffffffffffffffff1673ffffffffffffffffffffffffffffffffffffffff16639d755367836040518263ffffffff1660e01b81526004016120c6919061597a565b60206040518083038186803b1580156120de57600080fd5b505afa1580156120f2573d6000803e3d6000fd5b505050506040513d601f19601f820116820180604052508101906121169190614005565b73ffffffffffffffffffffffffffffffffffffffff161461216c576040517f08c379a00000000000000000000000000000000000000000000000000000000081526004016121639061573d565b60405180910390fd5b600360009054906101000a900473ffffffffffffffffffffffffffffffffffffffff1673ffffffffffffffffffffffffffffffffffffffff1663ed06a74082846040518363ffffffff1660e01b81526004016121c9929190615995565b602060405180830381600087803b1580156121e357600080fd5b505af11580156121f7573d6000803e3d6000fd5b505050506040513d601f19601f8201168201806040525081019061221b919061417e565b61225a576040517f08c379a0000000000000000000000000000000000000000000000000000000008152600401612251906155fd565b60405180910390fd5b60006123a1600360009054906101000a900473ffffffffffffffffffffffffffffffffffffffff1673ffffffffffffffffffffffffffffffffffffffff16639839eafd846040518263ffffffff1660e01b81526004016122ba919061597a565b60006040518083038186803b1580156122d257600080fd5b505afa1580156122e6573d6000803e3d6000fd5b505050506040513d6000823e3d601f19601f8201168201806040525081019061230f919061406a565b6008600086815260200190815260200160002060070180548060200260200160405190810160405280929190818152602001828054801561239757602002820191906000526020600020906000905b82829054906101000a900461ffff1661ffff168152602001906002019060208260010104928301926001038202915080841161235e5790505b5050505050613413565b905060006123af8285613475565b90506123da81600860008781526020019081526020016000206002015461352a90919063ffffffff16565b60086000868152602001908152602001600020600201819055506124413382600260009054906101000a900473ffffffffffffffffffffffffffffffffffffffff1673ffffffffffffffffffffffffffffffffffffffff166135cf9092919063ffffffff16565b50505050565b600760049054906101000a900460ff1681565b60008060009054906101000a900473ffffffffffffffffffffffffffffffffffffffff16905090565b61248b613265565b73ffffffffffffffffffffffffffffffffffffffff166124a961245a565b73ffffffffffffffffffffffffffffffffffffffff16146124ff576040517f08c379a00000000000000000000000000000000000000000000000000000000081526004016124f6906157fd565b60405180910390fd5b60008560ff1614158015612517575060008460ff1614155b612556576040517f08c379a000000000000000000000000000000000000000000000000000000000815260040161254d9061587d565b60405180910390fd5b8360ff168560ff161061259e576040517f08c379a00000000000000000000000000000000000000000000000000000000081526004016125959061553d565b60405180910390fd5b8160ff168360ff161080156125b857508060ff168260ff16105b6125f7576040517f08c379a00000000000000000000000000000000000000000000000000000000081526004016125ee9061559d565b60405180910390fd5b84600760036101000a81548160ff021916908360ff16021790555083600760046101000a81548160ff021916908360ff16021790555082600760056101000a81548160ff021916908360ff16021790555081600760066101000a81548160ff021916908360ff160217905550806007806101000a81548160ff021916908360ff1602179055507f01618beb8a3c654575d63a5d2e28c8fc894fed0753514441c68f2e17a40bddd63386868686866040516126b69695949392919061536e565b60405180910390a15050505050565b60078054906101000a900460ff1681565b600760019054906101000a900461ffff1681565b600760059054906101000a900460ff1681565b61271c3373ffffffffffffffffffffffffffffffffffffffff16613400565b1561275c576040517f08c379a00000000000000000000000000000000000000000000000000000000081526004016127539061581d565b60405180910390fd5b3273ffffffffffffffffffffffffffffffffffffffff163373ffffffffffffffffffffffffffffffffffffffff16146127ca576040517f08c379a00000000000000000000000000000000000000000000000000000000081526004016127c19061547d565b60405180910390fd5b60086000858152602001908152602001600020600501546127e9610d9c565b101561282a576040517f08c379a00000000000000000000000000000000000000000000000000000000081526004016128219061561d565b60405180910390fd5b6008600085815260200190815260200160002060060154612849610d9c565b10612889576040517f08c379a0000000000000000000000000000000000000000000000000000000008152600401612880906156bd565b60405180910390fd5b6000600381111561289657fe5b6008600086815260200190815260200160002060010160009054906101000a900460ff1660038111156128c557fe5b1415612929576128d3610d9c565b6008600086815260200190815260200160002060050154106129285760016008600086815260200190815260200160002060010160006101000a81548160ff0219169083600381111561292257fe5b02179055505b5b6001600381111561293657fe5b6008600086815260200190815260200160002060010160009054906101000a900460ff16600381111561296557fe5b146129a5576040517f08c379a000000000000000000000000000000000000000000000000000000000815260040161299c9061589d565b60405180910390fd5b60328360ff1611156129ec576040517f08c379a00000000000000000000000000000000000000000000000000000000081526004016129e3906154fd565b60405180910390fd5b6000612a13600760009054906101000a900460ff168560ff1661365590919063ffffffff16565b60ff169050808383905014612a5d576040517f08c379a0000000000000000000000000000000000000000000000000000000008152600401612a549061579d565b60405180910390fd5b60008060003073ffffffffffffffffffffffffffffffffffffffff1663dccda09689896040518363ffffffff1660e01b8152600401612a9d9291906159f5565b60606040518083038186803b158015612ab557600080fd5b505afa158015612ac9573d6000803e3d6000fd5b505050506040513d601f19601f82011682018060405250810190612aed91906142b6565b925092509250600260009054906101000a900473ffffffffffffffffffffffffffffffffffffffff1673ffffffffffffffffffffffffffffffffffffffff166323b872dd3330846040518463ffffffff1660e01b8152600401612b5293929190615260565b602060405180830381600087803b158015612b6c57600080fd5b505af1158015612b80573d6000803e3d6000fd5b505050506040513d601f19601f82011682018060405250810190612ba4919061417e565b506060600360009054906101000a900473ffffffffffffffffffffffffffffffffffffffff1673ffffffffffffffffffffffffffffffffffffffff16635e3261d0338b8b8b8b600760009054906101000a900460ff166040518763ffffffff1660e01b8152600401612c1b969594939291906152e9565b600060405180830381600087803b158015612c3557600080fd5b505af1158015612c49573d6000803e3d6000fd5b505050506040513d6000823e3d601f19601f82011682018060405250810190612c7291906140ab565b90503373ffffffffffffffffffffffffffffffffffffffff167ff3b6bffcebba7579100b0c6d1a161291881ac36e30c7eced22d0103370e6cafc828989888888604051612cc4969594939291906153f8565b60405180910390a2505050505050505050565b612cdf613265565b73ffffffffffffffffffffffffffffffffffffffff16612cfd61245a565b73ffffffffffffffffffffffffffffffffffffffff1614612d53576040517f08c379a0000000000000000000000000000000000000000000000000000000008152600401612d4a906157fd565b60405180910390fd5b8061ffff16600760019054906101000a900461ffff1661ffff161415612dae576040517f08c379a0000000000000000000000000000000000000000000000000000000008152600401612da59061571d565b60405180910390fd5b6000600760019054906101000a900461ffff1661ffff161415612e06576040517f08c379a0000000000000000000000000000000000000000000000000000000008152600401612dfd906156fd565b60405180910390fd5b80600760016101000a81548161ffff021916908361ffff1602179055507f2a54f3414068117c88afc33d8e1dea5f6330df95e10ef41731baea27ab8a946e3382604051612e54929190615297565b60405180910390a150565b612e67613c08565b6008600083815260200190815260200160002060405180610100016040529081600082015481526020016001820160009054906101000a900460ff166003811115612eae57fe5b6003811115612eb957fe5b8152602001600282015481526020016003820154815260200160048201805480602002602001604051908101604052809291908181526020018280548015612f4657602002820191906000526020600020906000905b82829054906101000a900460ff1660ff1681526020019060010190602082600001049283019260010382029150808411612f0f5790505b50505050508152602001600582015481526020016006820154815260200160078201805480602002602001604051908101604052809291908181526020018280548015612fda57602002820191906000526020600020906000905b82829054906101000a900461ffff1661ffff1681526020019060020190602082600101049283019260010382029150808411612fa15790505b5050505050815250509050919050565b6000806000612ff985856136d4565b91503073ffffffffffffffffffffffffffffffffffffffff16634f7d93db86866040518363ffffffff1660e01b8152600401613036929190615995565b60206040518083038186803b15801561304e57600080fd5b505afa158015613062573d6000803e3d6000fd5b505050506040513d601f19601f8201168201806040525081019061308691906141f9565b925061309b828461352a90919063ffffffff16565b90509250925092565b6000600760019054906101000a900461ffff16905090565b6130c4613265565b73ffffffffffffffffffffffffffffffffffffffff166130e261245a565b73ffffffffffffffffffffffffffffffffffffffff1614613138576040517f08c379a000000000000000000000000000000000000000000000000000000000815260040161312f906157fd565b60405180910390fd5b600073ffffffffffffffffffffffffffffffffffffffff168173ffffffffffffffffffffffffffffffffffffffff1614156131a8576040517f08c379a000000000000000000000000000000000000000000000000000000000815260040161319f9061551d565b60405180910390fd5b8073ffffffffffffffffffffffffffffffffffffffff1660008054906101000a900473ffffffffffffffffffffffffffffffffffffffff1673ffffffffffffffffffffffffffffffffffffffff167f8be0079c531659141344cd1fd0a4f28419497f9722a3daafe3b4186f6b6457e060405160405180910390a3806000806101000a81548173ffffffffffffffffffffffffffffffffffffffff021916908373ffffffffffffffffffffffffffffffffffffffff16021790555050565b600033905090565b606080600760009054906101000a900460ff1660ff1667ffffffffffffffff8111801561329957600080fd5b506040519080825280602002602001820160405280156132c85781602001602082028036833780820191505090505b50905060005b600760009054906101000a900460ff1660ff1681101561337557600084826040516020016132fd929190615219565b60405160208183030381529060405280519060200120905060008160001c9050613344600760019054906101000a900461ffff1661ffff168261385790919063ffffffff16565b84848151811061335057fe5b602002602001019061ffff16908161ffff1681525050505080806001019150506132ce565b5080915050919050565b600061338a30613400565b15905090565b6000808314156133a357600090506133fa565b60008284029050828482816133b457fe5b04146133f5576040517f08c379a00000000000000000000000000000000000000000000000000000000081526004016133ec906157dd565b60405180910390fd5b809150505b92915050565b600080823b905060008111915050919050565b600080600090505b825181101561346e5782818151811061343057fe5b602002602001015161ffff1684828151811061344857fe5b602002602001015161ffff161415613461576001820191505b808060010191505061341b565b5092915050565b6000806000905060008460ff161415613492576000915050613524565b6000600860008581526020019081526020016000206004016001860360ff16815481106134bb57fe5b90600052602060002090602091828204019190069054906101000a900460ff1660ff16905061350981600860008781526020019081526020016000206002015461339090919063ffffffff16565b915061351f6064836138ad90919063ffffffff16565b925050505b92915050565b60008282111561356f576040517f08c379a00000000000000000000000000000000000000000000000000000000081526004016135669061563d565b60405180910390fd5b818303905092915050565b6000808284019050838110156135c5576040517f08c379a00000000000000000000000000000000000000000000000000000000081526004016135bc906155bd565b60405180910390fd5b8091505092915050565b6136508363a9059cbb60e01b84846040516024016135ee9291906153cf565b604051602081830303815290604052907bffffffffffffffffffffffffffffffffffffffffffffffffffffffff19166020820180517bffffffffffffffffffffffffffffffffffffffffffffffffffffffff8381831617835250505050613903565b505050565b6000808360ff16141561366b57600090506136ce565b600082840290508260ff168460ff168260ff168161368557fe5b0460ff16146136c9576040517f08c379a00000000000000000000000000000000000000000000000000000000081526004016136c0906157dd565b60405180910390fd5b809150505b92915050565b6000803073ffffffffffffffffffffffffffffffffffffffff16634f7d93db85856040518363ffffffff1660e01b8152600401613712929190615995565b60206040518083038186803b15801561372a57600080fd5b505afa15801561373e573d6000803e3d6000fd5b505050506040513d601f19601f8201168201806040525081019061376291906141f9565b9050600760039054906101000a900460ff1660ff168310156137bd576137b660646137a8600760059054906101000a900460ff1660ff168461339090919063ffffffff16565b6138ad90919063ffffffff16565b9150613850565b600760049054906101000a900460ff1660ff168310156138165761380f6064613801600760069054906101000a900460ff1660ff168461339090919063ffffffff16565b6138ad90919063ffffffff16565b915061384f565b61384c606461383e60078054906101000a900460ff1660ff168461339090919063ffffffff16565b6138ad90919063ffffffff16565b91505b5b5092915050565b600080821161389b576040517f08c379a00000000000000000000000000000000000000000000000000000000081526004016138929061575d565b60405180910390fd5b8183816138a457fe5b06905092915050565b60008082116138f1576040517f08c379a00000000000000000000000000000000000000000000000000000000081526004016138e89061569d565b60405180910390fd5b8183816138fa57fe5b04905092915050565b6060613965826040518060400160405280602081526020017f5361666545524332303a206c6f772d6c6576656c2063616c6c206661696c65648152508573ffffffffffffffffffffffffffffffffffffffff166139ca9092919063ffffffff16565b90506000815111156139c55780806020019051810190613985919061417e565b6139c4576040517f08c379a00000000000000000000000000000000000000000000000000000000081526004016139bb906158dd565b60405180910390fd5b5b505050565b60606139d984846000856139e2565b90509392505050565b606082471015613a27576040517f08c379a0000000000000000000000000000000000000000000000000000000008152600401613a1e9061565d565b60405180910390fd5b613a3085613400565b613a6f576040517f08c379a0000000000000000000000000000000000000000000000000000000008152600401613a669061585d565b60405180910390fd5b600060608673ffffffffffffffffffffffffffffffffffffffff168587604051613a999190615202565b60006040518083038185875af1925050503d8060008114613ad6576040519150601f19603f3d011682016040523d82523d6000602084013e613adb565b606091505b5091509150613aeb828286613af7565b92505050949350505050565b60608315613b0757829050613b57565b600083511115613b1a5782518084602001fd5b816040517f08c379a0000000000000000000000000000000000000000000000000000000008152600401613b4e919061545b565b60405180910390fd5b9392505050565b82805482825590600052602060002090600f01601090048101928215613bf75791602002820160005b83821115613bc757835183826101000a81548161ffff021916908361ffff1602179055509260200192600201602081600101049283019260010302613b87565b8015613bf55782816101000a81549061ffff0219169055600201602081600101049283019260010302613bc7565b505b509050613c049190613cff565b5090565b6040518061010001604052806000815260200160006003811115613c2857fe5b81526020016000815260200160008152602001606081526020016000815260200160008152602001606081525090565b82805482825590600052602060002090601f01602090048101928215613cee5791602002820160005b83821115613cbf57835183826101000a81548160ff021916908360ff1602179055509260200192600101602081600001049283019260010302613c81565b8015613cec5782816101000a81549060ff0219169055600101602081600001049283019260010302613cbf565b505b509050613cfb9190613d28565b5090565b5b80821115613d2457600081816101000a81549061ffff021916905550600101613d00565b5090565b5b80821115613d4c57600081816101000a81549060ff021916905550600101613d29565b5090565b600081359050613d5f81615cfd565b92915050565b600081519050613d7481615cfd565b92915050565b60008083601f840112613d8c57600080fd5b8235905067ffffffffffffffff811115613da557600080fd5b602083019150836020820283011115613dbd57600080fd5b9250929050565b600082601f830112613dd557600080fd5b8151613de8613de382615a66565b615a39565b91508181835260208401935060208101905083856020840282011115613e0d57600080fd5b60005b83811015613e3d5781613e238882613f88565b845260208401935060208301925050600181019050613e10565b5050505092915050565b60008083601f840112613e5957600080fd5b8235905067ffffffffffffffff811115613e7257600080fd5b602083019150836020820283011115613e8a57600080fd5b9250929050565b600082601f830112613ea257600080fd5b8151613eb5613eb082615a8e565b615a39565b91508181835260208401935060208101905083856020840282011115613eda57600080fd5b60005b83811015613f0a5781613ef08882613fb2565b845260208401935060208301925050600181019050613edd565b5050505092915050565b60008083601f840112613f2657600080fd5b8235905067ffffffffffffffff811115613f3f57600080fd5b602083019150836020820283011115613f5757600080fd5b9250929050565b600081519050613f6d81615d14565b92915050565b600081359050613f8281615d2b565b92915050565b600081519050613f9781615d2b565b92915050565b600081359050613fac81615d42565b92915050565b600081519050613fc181615d42565b92915050565b600081359050613fd681615d59565b92915050565b600060208284031215613fee57600080fd5b6000613ffc84828501613d50565b91505092915050565b60006020828403121561401757600080fd5b600061402584828501613d65565b91505092915050565b6000806040838503121561404157600080fd5b600061404f85828601613d50565b925050602061406085828601613d50565b9150509250929050565b60006020828403121561407c57600080fd5b600082015167ffffffffffffffff81111561409657600080fd5b6140a284828501613dc4565b91505092915050565b6000602082840312156140bd57600080fd5b600082015167ffffffffffffffff8111156140d757600080fd5b6140e384828501613e91565b91505092915050565b60008060008060008060a0878903121561410557600080fd5b600087013567ffffffffffffffff81111561411f57600080fd5b61412b89828a01613f14565b9650965050602061413e89828a01613f9d565b945050604061414f89828a01613f9d565b935050606061416089828a01613f9d565b925050608061417189828a01613f9d565b9150509295509295509295565b60006020828403121561419057600080fd5b600061419e84828501613f5e565b91505092915050565b6000602082840312156141b957600080fd5b60006141c784828501613f73565b91505092915050565b6000602082840312156141e257600080fd5b60006141f084828501613f9d565b91505092915050565b60006020828403121561420b57600080fd5b600061421984828501613fb2565b91505092915050565b60008060006040848603121561423757600080fd5b600061424586828701613f9d565b935050602084013567ffffffffffffffff81111561426257600080fd5b61426e86828701613e47565b92509250509250925092565b6000806040838503121561428d57600080fd5b600061429b85828601613f9d565b92505060206142ac85828601613f9d565b9150509250929050565b6000806000606084860312156142cb57600080fd5b60006142d986828701613fb2565b93505060206142ea86828701613fb2565b92505060406142fb86828701613fb2565b9150509250925092565b6000806000806060858703121561431b57600080fd5b600061432987828801613f9d565b945050602061433a87828801613fc7565b935050604085013567ffffffffffffffff81111561435757600080fd5b61436387828801613d7a565b925092505092959194509250565b60006020828403121561438357600080fd5b600061439184828501613fc7565b91505092915050565b600080600080600060a086880312156143b257600080fd5b60006143c088828901613fc7565b95505060206143d188828901613fc7565b94505060406143e288828901613fc7565b93505060606143f388828901613fc7565b925050608061440488828901613fc7565b9150509295509295909350565b600061441d8383615182565b60208301905092915050565b600061443583836151a0565b60208301905092915050565b600061444d83836151e4565b60208301905092915050565b61446281615c48565b82525050565b61447181615bd2565b82525050565b60006144838385615b6c565b935061448e82615ab6565b8060005b858110156144c7576144a48284615bbb565b6144ae8882614411565b97506144b983615b27565b925050600181019050614492565b5085925050509392505050565b60006144df82615af0565b6144e98185615b5b565b93506144f483615ac0565b8060005b8381101561452557815161450c8882614411565b975061451783615b34565b9250506001810190506144f8565b5085935050505092915050565b600061453d82615afb565b6145478185615b7d565b935061455283615ad0565b8060005b8381101561458357815161456a8882614429565b975061457583615b41565b925050600181019050614556565b5085935050505092915050565b600061459b82615b06565b6145a58185615b8e565b93506145b083615ae0565b8060005b838110156145e15781516145c88882614441565b97506145d383615b4e565b9250506001810190506145b4565b5085935050505092915050565b60006145f982615b11565b6146038185615b9f565b9350614613818560208601615ca2565b80840191505092915050565b61462881615c5a565b82525050565b600061463982615b1c565b6146438185615baa565b9350614653818560208601615ca2565b61465c81615cdf565b840191505092915050565b6000614674601a83615baa565b91507f70726f787920636f6e7472616374206e6f7420616c6c6f7765640000000000006000830152602082019050919050565b60006146b4601583615baa565b91507f4f6e6c792072616e646f6d2067656e657261746f7200000000000000000000006000830152602082019050919050565b60006146f4601983615baa565b91507f5072697a65206f7220636f73742063616e6e6f742062652030000000000000006000830152602082019050919050565b6000614734601483615baa565b91507f496e76616c696420646973747269627574696f6e0000000000000000000000006000830152602082019050919050565b6000614774601483615baa565b91507f4261746368206d696e7420746f6f206c617267650000000000000000000000006000830152602082019050919050565b60006147b4602683615baa565b91507f4f776e61626c653a206e6577206f776e657220697320746865207a65726f206160008301527f64647265737300000000000000000000000000000000000000000000000000006020830152604082019050919050565b600061481a601a83615baa565b91507f4275636b6574206f6e65206d75737420626520736d616c6c65720000000000006000830152602082019050919050565b600061485a601283615baa565b91507f44726177206e756d6265727320666972737400000000000000000000000000006000830152602082019050919050565b600061489a601683615baa565b91507f576169742074696c6c20656e6420746f20636c61696d000000000000000000006000830152602082019050919050565b60006148da601783615baa565b91507f446973636f756e7473206d75737420696e6372656173650000000000000000006000830152602082019050919050565b600061491a601b83615baa565b91507f536166654d6174683a206164646974696f6e206f766572666c6f7700000000006000830152602082019050919050565b600061495a601883615baa565b91507f4c6f74746572792073697a652063616e6e6f74206265203000000000000000006000830152602082019050919050565b600061499a601a83615baa565b91507f4e756d6265727320666f72207469636b657420696e76616c69640000000000006000830152602082019050919050565b60006149da601b83615baa565b91507f496e76616c69642074696d6520666f72206d696e743a737461727400000000006000830152602082019050919050565b6000614a1a601e83615baa565b91507f536166654d6174683a207375627472616374696f6e206f766572666c6f7700006000830152602082019050919050565b6000614a5a602683615baa565b91507f416464726573733a20696e73756666696369656e742062616c616e636520666f60008301527f722063616c6c00000000000000000000000000000000000000000000000000006020830152604082019050919050565b6000614ac0602083615baa565b91507f4c6f747465727920537461746520696e636f727265637420666f7220647261776000830152602082019050919050565b6000614b00601a83615baa565b91507f536166654d6174683a206469766973696f6e206279207a65726f0000000000006000830152602082019050919050565b6000614b40601983615baa565b91507f496e76616c69642074696d6520666f72206d696e743a656e64000000000000006000830152602082019050919050565b6000614b80601583615baa565b91507f426174636820636c61696d20746f6f206c6172676500000000000000000000006000830152602082019050919050565b6000614bc0601583615baa565b91507f4d61782072616e67652063616e6e6f74206265203000000000000000000000006000830152602082019050919050565b6000614c00601a83615baa565b91507f43616e6e6f742073657420746f2063757272656e742073697a650000000000006000830152602082019050919050565b6000614c40601883615baa565b91507f4f6e6c7920746865206f776e65722063616e20636c61696d00000000000000006000830152602082019050919050565b6000614c80601883615baa565b91507f536166654d6174683a206d6f64756c6f206279207a65726f00000000000000006000830152602082019050919050565b6000614cc0602e83615baa565b91507f496e697469616c697a61626c653a20636f6e747261637420697320616c72656160008301527f647920696e697469616c697a65640000000000000000000000000000000000006020830152604082019050919050565b6000614d26601683615baa565b91507f496e76616c69642063686f73656e206e756d62657273000000000000000000006000830152602082019050919050565b6000614d66601d83615baa565b91507f436f6e7472616374732063616e6e6f74206265203020616464726573730000006000830152602082019050919050565b6000614da6602183615baa565b91507f536166654d6174683a206d756c7469706c69636174696f6e206f766572666c6f60008301527f77000000000000000000000000000000000000000000000000000000000000006020830152604082019050919050565b6000614e0c602083615baa565b91507f4f776e61626c653a2063616c6c6572206973206e6f7420746865206f776e65726000830152602082019050919050565b6000614e4c601483615baa565b91507f636f6e7472616374206e6f7420616c6c6f7765640000000000000000000000006000830152602082019050919050565b6000614e8c602983615baa565b91507f43616e6e6f74207365742077696e6e696e67206e756d6265727320647572696e60008301527f67206c6f747465727900000000000000000000000000000000000000000000006020830152604082019050919050565b6000614ef2601d83615baa565b91507f416464726573733a2063616c6c20746f206e6f6e2d636f6e74726163740000006000830152602082019050919050565b6000614f32601883615baa565b91507f4275636b65742072616e67652063616e6e6f74206265203000000000000000006000830152602082019050919050565b6000614f72601d83615baa565b91507f4c6f7474657279206e6f7420696e20737461746520666f72206d696e740000006000830152602082019050919050565b6000614fb2601e83615baa565b91507f54696d657374616d707320666f72206c6f747465727920696e76616c696400006000830152602082019050919050565b6000614ff2602a83615baa565b91507f5361666545524332303a204552433230206f7065726174696f6e20646964206e60008301527f6f742073756363656564000000000000000000000000000000000000000000006020830152604082019050919050565b6000615058601e83615baa565b91507f57696e6e696e67204e756d62657273206e6f742063686f73656e2079657400006000830152602082019050919050565b6000615098601e83615baa565b91507f5072697a6520646973747269627574696f6e206973206e6f74203130302500006000830152602082019050919050565b6000610100830160008301516150e460008601826151a0565b5060208301516150f7602086018261461f565b50604083015161510a60408601826151a0565b50606083015161511d60608601826151a0565b50608083015184820360808601526151358282614590565b91505060a083015161514a60a08601826151a0565b5060c083015161515d60c08601826151a0565b5060e083015184820360e086015261517582826144d4565b9150508091505092915050565b61518b81615c03565b82525050565b61519a81615c03565b82525050565b6151a981615c31565b82525050565b6151b881615c31565b82525050565b6151cf6151ca82615c31565b615cd5565b82525050565b6151de81615c90565b82525050565b6151ed81615c3b565b82525050565b6151fc81615c3b565b82525050565b600061520e82846145ee565b915081905092915050565b600061522582856151be565b60208201915061523582846151be565b6020820191508190509392505050565b600060208201905061525a6000830184614468565b92915050565b60006060820190506152756000830186614459565b6152826020830185614468565b61528f60408301846151af565b949350505050565b60006040820190506152ac6000830185614459565b6152b96020830184615191565b9392505050565b60006040820190506152d56000830185614459565b6152e260208301846151af565b9392505050565b600060a0820190506152fe6000830189614459565b61530b60208301886151af565b61531860408301876151f3565b818103606083015261532b818587614477565b905061533a60808301846151f3565b979650505050505050565b600060408201905061535a6000830185614459565b61536760208301846151f3565b9392505050565b600060c0820190506153836000830189614459565b61539060208301886151f3565b61539d60408301876151f3565b6153aa60608301866151f3565b6153b760808301856151f3565b6153c460a08301846151f3565b979650505050505050565b60006040820190506153e46000830185614468565b6153f160208301846151af565b9392505050565b600060a08201905081810360008301526154128189614532565b90508181036020830152615427818789614477565b905061543660408301866151af565b61544360608301856151af565b61545060808301846151af565b979650505050505050565b60006020820190508181036000830152615475818461462e565b905092915050565b6000602082019050818103600083015261549681614667565b9050919050565b600060208201905081810360008301526154b6816146a7565b9050919050565b600060208201905081810360008301526154d6816146e7565b9050919050565b600060208201905081810360008301526154f681614727565b9050919050565b6000602082019050818103600083015261551681614767565b9050919050565b60006020820190508181036000830152615536816147a7565b9050919050565b600060208201905081810360008301526155568161480d565b9050919050565b600060208201905081810360008301526155768161484d565b9050919050565b600060208201905081810360008301526155968161488d565b9050919050565b600060208201905081810360008301526155b6816148cd565b9050919050565b600060208201905081810360008301526155d68161490d565b9050919050565b600060208201905081810360008301526155f68161494d565b9050919050565b600060208201905081810360008301526156168161498d565b9050919050565b60006020820190508181036000830152615636816149cd565b9050919050565b6000602082019050818103600083015261565681614a0d565b9050919050565b6000602082019050818103600083015261567681614a4d565b9050919050565b6000602082019050818103600083015261569681614ab3565b9050919050565b600060208201905081810360008301526156b681614af3565b9050919050565b600060208201905081810360008301526156d681614b33565b9050919050565b600060208201905081810360008301526156f681614b73565b9050919050565b6000602082019050818103600083015261571681614bb3565b9050919050565b6000602082019050818103600083015261573681614bf3565b9050919050565b6000602082019050818103600083015261575681614c33565b9050919050565b6000602082019050818103600083015261577681614c73565b9050919050565b6000602082019050818103600083015261579681614cb3565b9050919050565b600060208201905081810360008301526157b681614d19565b9050919050565b600060208201905081810360008301526157d681614d59565b9050919050565b600060208201905081810360008301526157f681614d99565b9050919050565b6000602082019050818103600083015261581681614dff565b9050919050565b6000602082019050818103600083015261583681614e3f565b9050919050565b6000602082019050818103600083015261585681614e7f565b9050919050565b6000602082019050818103600083015261587681614ee5565b9050919050565b6000602082019050818103600083015261589681614f25565b9050919050565b600060208201905081810360008301526158b681614f65565b9050919050565b600060208201905081810360008301526158d681614fa5565b9050919050565b600060208201905081810360008301526158f681614fe5565b9050919050565b600060208201905081810360008301526159168161504b565b9050919050565b600060208201905081810360008301526159368161508b565b9050919050565b6000602082019050818103600083015261595781846150cb565b905092915050565b60006020820190506159746000830184615191565b92915050565b600060208201905061598f60008301846151af565b92915050565b60006040820190506159aa60008301856151af565b6159b760208301846151af565b9392505050565b60006060820190506159d360008301866151af565b6159e060208301856151af565b6159ed60408301846151af565b949350505050565b6000604082019050615a0a60008301856151af565b615a1760208301846151d5565b9392505050565b6000602082019050615a3360008301846151f3565b92915050565b6000604051905081810181811067ffffffffffffffff82111715615a5c57600080fd5b8060405250919050565b600067ffffffffffffffff821115615a7d57600080fd5b602082029050602081019050919050565b600067ffffffffffffffff821115615aa557600080fd5b602082029050602081019050919050565b6000819050919050565b6000819050602082019050919050565b6000819050602082019050919050565b6000819050602082019050919050565b600081519050919050565b600081519050919050565b600081519050919050565b600081519050919050565b600081519050919050565b6000602082019050919050565b6000602082019050919050565b6000602082019050919050565b6000602082019050919050565b600082825260208201905092915050565b600082825260208201905092915050565b600082825260208201905092915050565b600082825260208201905092915050565b600081905092915050565b600082825260208201905092915050565b6000615bca6020840184613f73565b905092915050565b6000615bdd82615c11565b9050919050565b60008115159050919050565b6000819050615bfe82615cf0565b919050565b600061ffff82169050919050565b600073ffffffffffffffffffffffffffffffffffffffff82169050919050565b6000819050919050565b600060ff82169050919050565b6000615c5382615c6c565b9050919050565b6000615c6582615bf0565b9050919050565b6000615c7782615c7e565b9050919050565b6000615c8982615c11565b9050919050565b6000615c9b82615c3b565b9050919050565b60005b83811015615cc0578082015181840152602081019050615ca5565b83811115615ccf576000848401525b50505050565b6000819050919050565b6000601f19601f8301169050919050565b60048110615cfa57fe5b50565b615d0681615bd2565b8114615d1157600080fd5b50565b615d1d81615be4565b8114615d2857600080fd5b50565b615d3481615c03565b8114615d3f57600080fd5b50565b615d4b81615c31565b8114615d5657600080fd5b50565b615d6281615c3b565b8114615d6d57600080fd5b5056fea26469706673582212209f2b15b62da06671deeb945c7dd776b1614e4901df6302e8a32b7bc9300fa81164736f6c634300060c0033",
  "linkReferences": {},
  "deployedLinkReferences": {}
}