{
  "_format": "hh-sol-artifact-1",
  "contractName": "LotteryNFT",
  "sourceName": "contracts/LotteryNFT.sol",
  "abi": [
    {
      "inputs": [
        {
          "internalType": "string",
          "name": "_uri",
          "type": "string"
        },
        {
          "internalType": "address",
          "name": "_lotto",
          "type": "address"
        },
        {
          "internalType": "address",
          "name": "_timer",
          "type": "address"
        }
      ],
      "stateMutability": "nonpayable",
      "type": "constructor"
    },
    {
      "anonymous": false,
      "inputs": [
        {
          "indexed": true,
          "internalType": "address",
          "name": "account",
          "type": "address"
        },
        {
          "indexed": true,
          "internalType": "address",
          "name": "operator",
          "type": "address"
        },
        {
          "indexed": false,
          "internalType": "bool",
          "name": "approved",
          "type": "bool"
        }
      ],
      "name": "ApprovalForAll",
      "type": "event"
    },
    {
      "anonymous": false,
      "inputs": [
        {
          "indexed": true,
          "internalType": "address",
          "name": "receiving",
          "type": "address"
        },
        {
          "indexed": false,
          "internalType": "uint256",
          "name": "lotteryId",
          "type": "uint256"
        },
        {
          "indexed": false,
          "internalType": "uint256",
          "name": "amountOfTokens",
          "type": "uint256"
        },
        {
          "indexed": false,
          "internalType": "uint256[]",
          "name": "tokenIds",
          "type": "uint256[]"
        }
      ],
      "name": "InfoBatchMint",
      "type": "event"
    },
    {
      "anonymous": false,
      "inputs": [
        {
          "indexed": true,
          "internalType": "address",
          "name": "previousOwner",
          "type": "address"
        },
        {
          "indexed": true,
          "internalType": "address",
          "name": "newOwner",
          "type": "address"
        }
      ],
      "name": "OwnershipTransferred",
      "type": "event"
    },
    {
      "anonymous": false,
      "inputs": [
        {
          "indexed": true,
          "internalType": "address",
          "name": "operator",
          "type": "address"
        },
        {
          "indexed": true,
          "internalType": "address",
          "name": "from",
          "type": "address"
        },
        {
          "indexed": true,
          "internalType": "address",
          "name": "to",
          "type": "address"
        },
        {
          "indexed": false,
          "internalType": "uint256[]",
          "name": "ids",
          "type": "uint256[]"
        },
        {
          "indexed": false,
          "internalType": "uint256[]",
          "name": "values",
          "type": "uint256[]"
        }
      ],
      "name": "TransferBatch",
      "type": "event"
    },
    {
      "anonymous": false,
      "inputs": [
        {
          "indexed": true,
          "internalType": "address",
          "name": "operator",
          "type": "address"
        },
        {
          "indexed": true,
          "internalType": "address",
          "name": "from",
          "type": "address"
        },
        {
          "indexed": true,
          "internalType": "address",
          "name": "to",
          "type": "address"
        },
        {
          "indexed": false,
          "internalType": "uint256",
          "name": "id",
          "type": "uint256"
        },
        {
          "indexed": false,
          "internalType": "uint256",
          "name": "value",
          "type": "uint256"
        }
      ],
      "name": "TransferSingle",
      "type": "event"
    },
    {
      "anonymous": false,
      "inputs": [
        {
          "indexed": false,
          "internalType": "string",
          "name": "value",
          "type": "string"
        },
        {
          "indexed": true,
          "internalType": "uint256",
          "name": "id",
          "type": "uint256"
        }
      ],
      "name": "URI",
      "type": "event"
    },
    {
      "inputs": [
        {
          "internalType": "address",
          "name": "account",
          "type": "address"
        },
        {
          "internalType": "uint256",
          "name": "id",
          "type": "uint256"
        }
      ],
      "name": "balanceOf",
      "outputs": [
        {
          "internalType": "uint256",
          "name": "",
          "type": "uint256"
        }
      ],
      "stateMutability": "view",
      "type": "function"
    },
    {
      "inputs": [
        {
          "internalType": "address[]",
          "name": "accounts",
          "type": "address[]"
        },
        {
          "internalType": "uint256[]",
          "name": "ids",
          "type": "uint256[]"
        }
      ],
      "name": "balanceOfBatch",
      "outputs": [
        {
          "internalType": "uint256[]",
          "name": "",
          "type": "uint256[]"
        }
      ],
      "stateMutability": "view",
      "type": "function"
    },
    {
      "inputs": [
        {
          "internalType": "address",
          "name": "_to",
          "type": "address"
        },
        {
          "internalType": "uint256",
          "name": "_lotteryId",
          "type": "uint256"
        },
        {
          "internalType": "uint8",
          "name": "_numberOfTickets",
          "type": "uint8"
        },
        {
          "internalType": "uint16[]",
          "name": "_numbers",
          "type": "uint16[]"
        },
        {
          "internalType": "uint8",
          "name": "sizeOfLottery",
          "type": "uint8"
        }
      ],
      "name": "batchMint",
      "outputs": [
        {
          "internalType": "uint256[]",
          "name": "",
          "type": "uint256[]"
        }
      ],
      "stateMutability": "nonpayable",
      "type": "function"
    },
    {
      "inputs": [
        {
          "internalType": "uint256",
          "name": "_ticketID",
          "type": "uint256"
        },
        {
          "internalType": "uint256",
          "name": "_lotteryId",
          "type": "uint256"
        }
      ],
      "name": "claimTicket",
      "outputs": [
        {
          "internalType": "bool",
          "name": "",
          "type": "bool"
        }
      ],
      "stateMutability": "nonpayable",
      "type": "function"
    },
    {
      "inputs": [],
      "name": "getCurrentTime",
      "outputs": [
        {
          "internalType": "uint256",
          "name": "",
          "type": "uint256"
        }
      ],
      "stateMutability": "view",
      "type": "function"
    },
    {
      "inputs": [
        {
          "internalType": "uint256",
          "name": "_ticketID",
          "type": "uint256"
        }
      ],
      "name": "getOwnerOfTicket",
      "outputs": [
        {
          "internalType": "address",
          "name": "",
          "type": "address"
        }
      ],
      "stateMutability": "view",
      "type": "function"
    },
    {
      "inputs": [
        {
          "internalType": "uint256",
          "name": "_ticketID",
          "type": "uint256"
        }
      ],
      "name": "getTicketClaimStatus",
      "outputs": [
        {
          "internalType": "bool",
          "name": "",
          "type": "bool"
        }
      ],
      "stateMutability": "view",
      "type": "function"
    },
    {
      "inputs": [
        {
          "internalType": "uint256",
          "name": "_ticketID",
          "type": "uint256"
        }
      ],
      "name": "getTicketNumbers",
      "outputs": [
        {
          "internalType": "uint16[]",
          "name": "",
          "type": "uint16[]"
        }
      ],
      "stateMutability": "view",
      "type": "function"
    },
    {
      "inputs": [],
      "name": "getTotalSupply",
      "outputs": [
        {
          "internalType": "uint256",
          "name": "",
          "type": "uint256"
        }
      ],
      "stateMutability": "view",
      "type": "function"
    },
    {
      "inputs": [
        {
          "internalType": "uint256",
          "name": "_lotteryId",
          "type": "uint256"
        },
        {
          "internalType": "address",
          "name": "_user",
          "type": "address"
        }
      ],
      "name": "getUserTickets",
      "outputs": [
        {
          "internalType": "uint256[]",
          "name": "",
          "type": "uint256[]"
        }
      ],
      "stateMutability": "view",
      "type": "function"
    },
    {
      "inputs": [
        {
          "internalType": "address",
          "name": "_user",
          "type": "address"
        },
        {
          "internalType": "uint256",
          "name": "_lotteryId",
          "type": "uint256"
        },
        {
          "internalType": "uint256",
          "name": "cursor",
          "type": "uint256"
        },
        {
          "internalType": "uint256",
          "name": "size",
          "type": "uint256"
        }
      ],
      "name": "getUserTicketsPagination",
      "outputs": [
        {
          "internalType": "uint256[]",
          "name": "",
          "type": "uint256[]"
        },
        {
          "internalType": "uint256",
          "name": "",
          "type": "uint256"
        }
      ],
      "stateMutability": "view",
      "type": "function"
    },
    {
      "inputs": [
        {
          "internalType": "address",
          "name": "account",
          "type": "address"
        },
        {
          "internalType": "address",
          "name": "operator",
          "type": "address"
        }
      ],
      "name": "isApprovedForAll",
      "outputs": [
        {
          "internalType": "bool",
          "name": "",
          "type": "bool"
        }
      ],
      "stateMutability": "view",
      "type": "function"
    },
    {
      "inputs": [],
      "name": "owner",
      "outputs": [
        {
          "internalType": "address",
          "name": "",
          "type": "address"
        }
      ],
      "stateMutability": "view",
      "type": "function"
    },
    {
      "inputs": [],
      "name": "renounceOwnership",
      "outputs": [],
      "stateMutability": "nonpayable",
      "type": "function"
    },
    {
      "inputs": [
        {
          "internalType": "address",
          "name": "from",
          "type": "address"
        },
        {
          "internalType": "address",
          "name": "to",
          "type": "address"
        },
        {
          "internalType": "uint256[]",
          "name": "ids",
          "type": "uint256[]"
        },
        {
          "internalType": "uint256[]",
          "name": "amounts",
          "type": "uint256[]"
        },
        {
          "internalType": "bytes",
          "name": "data",
          "type": "bytes"
        }
      ],
      "name": "safeBatchTransferFrom",
      "outputs": [],
      "stateMutability": "nonpayable",
      "type": "function"
    },
    {
      "inputs": [
        {
          "internalType": "address",
          "name": "from",
          "type": "address"
        },
        {
          "internalType": "address",
          "name": "to",
          "type": "address"
        },
        {
          "internalType": "uint256",
          "name": "id",
          "type": "uint256"
        },
        {
          "internalType": "uint256",
          "name": "amount",
          "type": "uint256"
        },
        {
          "internalType": "bytes",
          "name": "data",
          "type": "bytes"
        }
      ],
      "name": "safeTransferFrom",
      "outputs": [],
      "stateMutability": "nonpayable",
      "type": "function"
    },
    {
      "inputs": [
        {
          "internalType": "address",
          "name": "operator",
          "type": "address"
        },
        {
          "internalType": "bool",
          "name": "approved",
          "type": "bool"
        }
      ],
      "name": "setApprovalForAll",
      "outputs": [],
      "stateMutability": "nonpayable",
      "type": "function"
    },
    {
      "inputs": [
        {
          "internalType": "uint256",
          "name": "time",
          "type": "uint256"
        }
      ],
      "name": "setCurrentTime",
      "outputs": [],
      "stateMutability": "nonpayable",
      "type": "function"
    },
    {
      "inputs": [
        {
          "internalType": "bytes4",
          "name": "interfaceId",
          "type": "bytes4"
        }
      ],
      "name": "supportsInterface",
      "outputs": [
        {
          "internalType": "bool",
          "name": "",
          "type": "bool"
        }
      ],
      "stateMutability": "view",
      "type": "function"
    },
    {
      "inputs": [],
      "name": "timerAddress",
      "outputs": [
        {
          "internalType": "address",
          "name": "",
          "type": "address"
        }
      ],
      "stateMutability": "view",
      "type": "function"
    },
    {
      "inputs": [
        {
          "internalType": "address",
          "name": "newOwner",
          "type": "address"
        }
      ],
      "name": "transferOwnership",
      "outputs": [],
      "stateMutability": "nonpayable",
      "type": "function"
    },
    {
      "inputs": [
        {
          "internalType": "uint256",
          "name": "",
          "type": "uint256"
        }
      ],
      "name": "uri",
      "outputs": [
        {
          "internalType": "string",
          "name": "",
          "type": "string"
        }
      ],
      "stateMutability": "view",
      "type": "function"
    }
  ],
  "bytecode": "0x60806040523480156200001157600080fd5b506040516200467e3803806200467e8339818101604052810190620000379190620003e5565b8083620000516301ffc9a760e01b620001d060201b60201c565b6200006281620002a860201b60201c565b6200007a63d9b67a2660e01b620001d060201b60201c565b62000092630e89341c60e01b620001d060201b60201c565b506000620000a5620002c460201b60201c565b905080600460006101000a81548173ffffffffffffffffffffffffffffffffffffffff021916908373ffffffffffffffffffffffffffffffffffffffff1602179055508073ffffffffffffffffffffffffffffffffffffffff16600073ffffffffffffffffffffffffffffffffffffffff167f8be0079c531659141344cd1fd0a4f28419497f9722a3daafe3b4186f6b6457e060405160405180910390a35080600560006101000a81548173ffffffffffffffffffffffffffffffffffffffff021916908373ffffffffffffffffffffffffffffffffffffffff1602179055505081600660006101000a81548173ffffffffffffffffffffffffffffffffffffffff021916908373ffffffffffffffffffffffffffffffffffffffff160217905550505050620005b6565b63ffffffff60e01b817bffffffffffffffffffffffffffffffffffffffffffffffffffffffff191614156200023c576040517f08c379a0000000000000000000000000000000000000000000000000000000008152600401620002339062000496565b60405180910390fd5b6001600080837bffffffffffffffffffffffffffffffffffffffffffffffffffffffff19167bffffffffffffffffffffffffffffffffffffffffffffffffffffffff1916815260200190815260200160002060006101000a81548160ff02191690831515021790555050565b8060039080519060200190620002c0929190620002cc565b5050565b600033905090565b828054600181600116156101000203166002900490600052602060002090601f016020900481019282601f106200030f57805160ff191683800117855562000340565b8280016001018555821562000340579182015b828111156200033f57825182559160200191906001019062000322565b5b5090506200034f919062000353565b5090565b5b808211156200036e57600081600090555060010162000354565b5090565b60008151905062000383816200059c565b92915050565b600082601f8301126200039b57600080fd5b8151620003b2620003ac82620004ec565b620004b8565b91508082526020830160208301858383011115620003cf57600080fd5b620003dc83828462000564565b50505092915050565b600080600060608486031215620003fb57600080fd5b600084015167ffffffffffffffff8111156200041657600080fd5b620004248682870162000389565b9350506020620004378682870162000372565b92505060406200044a8682870162000372565b9150509250925092565b600062000463601c836200051f565b91507f4552433136353a20696e76616c696420696e74657266616365206964000000006000830152602082019050919050565b60006020820190508181036000830152620004b18162000454565b9050919050565b6000604051905081810181811067ffffffffffffffff82111715620004e257620004e16200059a565b5b8060405250919050565b600067ffffffffffffffff8211156200050a57620005096200059a565b5b601f19601f8301169050602081019050919050565b600082825260208201905092915050565b60006200053d8262000544565b9050919050565b600073ffffffffffffffffffffffffffffffffffffffff82169050919050565b60005b838110156200058457808201518184015260208101905062000567565b8381111562000594576000848401525b50505050565bfe5b620005a78162000530565b8114620005b357600080fd5b50565b6140b880620005c66000396000f3fe608060405234801561001057600080fd5b50600436106101415760003560e01c80639191a7ea116100b8578063c4e41b221161007c578063c4e41b22146103af578063e7a7f65c146103cd578063e985e9c5146103fd578063ed06a7401461042d578063f242432a1461045d578063f2fde38b1461047957610141565b80639191a7ea146102d2578063929fc016146103025780639839eafd146103335780639d75536714610363578063a22cb4651461039357610141565b806329cb924d1161010a57806329cb924d146102105780632eb2c2d61461022e5780634e1273f41461024a5780635e3261d01461027a578063715018a6146102aa5780638da5cb5b146102b457610141565b8062fdd58e1461014657806301ffc9a7146101765780630e89341c146101a65780631c39c38d146101d657806322f8e566146101f4575b600080fd5b610160600480360381019061015b9190612d66565b610495565b60405161016d9190613bed565b60405180910390f35b610190600480360381019061018b9190612f03565b61055f565b60405161019d9190613990565b60405180910390f35b6101c060048036038101906101bb9190612f55565b6105c6565b6040516101cd91906139ab565b60405180910390f35b6101de61066a565b6040516101eb9190613808565b60405180910390f35b61020e60048036038101906102099190612f55565b610690565b005b61021861077c565b6040516102259190613bed565b60405180910390f35b61024860048036038101906102439190612bdc565b610881565b005b610264600480360381019061025f9190612e97565b610c42565b6040516102719190613907565b60405180910390f35b610294600480360381019061028f9190612e05565b610d3e565b6040516102a19190613907565b60405180910390f35b6102b26111a3565b005b6102bc6112e0565b6040516102c99190613808565b60405180910390f35b6102ec60048036038101906102e79190612f55565b61130a565b6040516102f99190613990565b60405180910390f35b61031c60048036038101906103179190612da2565b611337565b60405161032a929190613960565b60405180910390f35b61034d60048036038101906103489190612f55565b6114ec565b60405161035a91906138e5565b60405180910390f35b61037d60048036038101906103789190612f55565b611582565b60405161038a9190613808565b60405180910390f35b6103ad60048036038101906103a89190612d2a565b6115c2565b005b6103b7611743565b6040516103c49190613bed565b60405180910390f35b6103e760048036038101906103e29190612fa7565b61174d565b6040516103f49190613907565b60405180910390f35b61041760048036038101906104129190612ba0565b6117f6565b6040516104249190613990565b60405180910390f35b61044760048036038101906104429190612fe3565b61188a565b6040516104549190613990565b60405180910390f35b61047760048036038101906104729190612c9b565b611b50565b005b610493600480360381019061048e9190612b77565b611e93565b005b60008073ffffffffffffffffffffffffffffffffffffffff168373ffffffffffffffffffffffffffffffffffffffff161415610506576040517f08c379a00000000000000000000000000000000000000000000000000000000081526004016104fd90613a2d565b60405180910390fd5b6001600083815260200190815260200160002060008473ffffffffffffffffffffffffffffffffffffffff1673ffffffffffffffffffffffffffffffffffffffff16815260200190815260200160002054905092915050565b6000806000837bffffffffffffffffffffffffffffffffffffffffffffffffffffffff19167bffffffffffffffffffffffffffffffffffffffffffffffffffffffff1916815260200190815260200160002060009054906101000a900460ff169050919050565b606060038054600181600116156101000203166002900480601f01602080910402602001604051908101604052809291908181526020018280546001816001161561010002031660029004801561065e5780601f106106335761010080835404028352916020019161065e565b820191906000526020600020905b81548152906001019060200180831161064157829003601f168201915b50505050509050919050565b600560009054906101000a900473ffffffffffffffffffffffffffffffffffffffff1681565b600073ffffffffffffffffffffffffffffffffffffffff16600560009054906101000a900473ffffffffffffffffffffffffffffffffffffffff1673ffffffffffffffffffffffffffffffffffffffff1614156106ec57600080fd5b600560009054906101000a900473ffffffffffffffffffffffffffffffffffffffff1673ffffffffffffffffffffffffffffffffffffffff166322f8e566826040518263ffffffff1660e01b81526004016107479190613bed565b600060405180830381600087803b15801561076157600080fd5b505af1158015610775573d6000803e3d6000fd5b5050505050565b60008073ffffffffffffffffffffffffffffffffffffffff16600560009054906101000a900473ffffffffffffffffffffffffffffffffffffffff1673ffffffffffffffffffffffffffffffffffffffff161461087a57600560009054906101000a900473ffffffffffffffffffffffffffffffffffffffff1673ffffffffffffffffffffffffffffffffffffffff166329cb924d6040518163ffffffff1660e01b815260040160206040518083038186803b15801561083b57600080fd5b505afa15801561084f573d6000803e3d6000fd5b505050506040513d601f19601f820116820180604052508101906108739190612f7e565b905061087e565b4290505b90565b81518351146108c5576040517f08c379a00000000000000000000000000000000000000000000000000000000081526004016108bc90613bad565b60405180910390fd5b600073ffffffffffffffffffffffffffffffffffffffff168473ffffffffffffffffffffffffffffffffffffffff161415610935576040517f08c379a000000000000000000000000000000000000000000000000000000000815260040161092c90613aad565b60405180910390fd5b61093d61203f565b73ffffffffffffffffffffffffffffffffffffffff168573ffffffffffffffffffffffffffffffffffffffff16148061098357506109828561097d61203f565b6117f6565b5b6109c2576040517f08c379a00000000000000000000000000000000000000000000000000000000081526004016109b990613acd565b60405180910390fd5b60006109cc61203f565b90506109dc818787878787612047565b60005b8451811015610bad5760008582815181106109f657fe5b602002602001015190506000858381518110610a0e57fe5b60200260200101519050610a95816040518060600160405280602a8152602001614059602a91396001600086815260200190815260200160002060008d73ffffffffffffffffffffffffffffffffffffffff1673ffffffffffffffffffffffffffffffffffffffff1681526020019081526020016000205461204f9092919063ffffffff16565b6001600084815260200190815260200160002060008b73ffffffffffffffffffffffffffffffffffffffff1673ffffffffffffffffffffffffffffffffffffffff16815260200190815260200160002081905550610b4c816001600085815260200190815260200160002060008b73ffffffffffffffffffffffffffffffffffffffff1673ffffffffffffffffffffffffffffffffffffffff168152602001908152602001600020546120a490919063ffffffff16565b6001600084815260200190815260200160002060008a73ffffffffffffffffffffffffffffffffffffffff1673ffffffffffffffffffffffffffffffffffffffff1681526020019081526020016000208190555050508060010190506109df565b508473ffffffffffffffffffffffffffffffffffffffff168673ffffffffffffffffffffffffffffffffffffffff168273ffffffffffffffffffffffffffffffffffffffff167f4a39dc06d4c0dbc64b70af90fd698a233a518aa5d07e595d983b8c0526c8f7fb8787604051610c24929190613929565b60405180910390a4610c3a8187878787876120f9565b505050505050565b60608151835114610c88576040517f08c379a0000000000000000000000000000000000000000000000000000000008152600401610c7f90613b8d565b60405180910390fd5b6060835167ffffffffffffffff81118015610ca257600080fd5b50604051908082528060200260200182016040528015610cd15781602001602082028036833780820191505090505b50905060005b8451811015610d3357610d10858281518110610cef57fe5b6020026020010151858381518110610d0357fe5b6020026020010151610495565b828281518110610d1c57fe5b602002602001018181525050806001019050610cd7565b508091505092915050565b6060600660009054906101000a900473ffffffffffffffffffffffffffffffffffffffff1673ffffffffffffffffffffffffffffffffffffffff163373ffffffffffffffffffffffffffffffffffffffff1614610dd0576040517f08c379a0000000000000000000000000000000000000000000000000000000008152600401610dc790613b4d565b60405180910390fd5b60608560ff1667ffffffffffffffff81118015610dec57600080fd5b50604051908082528060200260200182016040528015610e1b5781602001602082028036833780820191505090505b50905060608660ff1667ffffffffffffffff81118015610e3a57600080fd5b50604051908082528060200260200182016040528015610e695781602001602082028036833780820191505090505b50905060005b8760ff168160ff1610156110f057610e9360016007546120a490919063ffffffff16565b600781905550600754828260ff1681518110610eab57fe5b6020026020010181815250506001838260ff1681518110610ec857fe5b6020026020010181815250506000610eec868360ff166122c990919063ffffffff16565b60ff1690506000610f1f87610f0e60018660ff1661234890919063ffffffff16565b60ff166122c990919063ffffffff16565b60ff1690503660008a8a8561ffff16908561ffff1692610f4193929190613dd2565b9150915060405180608001604052808f73ffffffffffffffffffffffffffffffffffffffff168152602001838380806020026020016040519081016040528093929190818152602001838360200280828437600081840152601f19601f8201169050808301925050505050505081526020016000151581526020018e81525060086000600754815260200190815260200160002060008201518160000160006101000a81548173ffffffffffffffffffffffffffffffffffffffff021916908373ffffffffffffffffffffffffffffffffffffffff1602179055506020820151816001019080519060200190611038929190612864565b5060408201518160020160006101000a81548160ff02191690831515021790555060608201518160030155905050600960008f73ffffffffffffffffffffffffffffffffffffffff1673ffffffffffffffffffffffffffffffffffffffff16815260200190815260200160002060008e81526020019081526020016000206007549080600181540180825580915050600190039060005260206000200160009091909190915055505050508080600101915050610e6f565b506111428982846000368080601f016020809104026020016040519081016040528093929190818152602001838380828437600081840152601f19601f820116905080830192505050505050506123a3565b8873ffffffffffffffffffffffffffffffffffffffff167f50062edf461f857e0c73dab48d8c44a183daec17735dded4c6ddd14a42dd47d389898460405161118c93929190613c31565b60405180910390a280925050509695505050505050565b6111ab61203f565b73ffffffffffffffffffffffffffffffffffffffff166111c96112e0565b73ffffffffffffffffffffffffffffffffffffffff161461121f576040517f08c379a000000000000000000000000000000000000000000000000000000000815260040161121690613b2d565b60405180910390fd5b600073ffffffffffffffffffffffffffffffffffffffff16600460009054906101000a900473ffffffffffffffffffffffffffffffffffffffff1673ffffffffffffffffffffffffffffffffffffffff167f8be0079c531659141344cd1fd0a4f28419497f9722a3daafe3b4186f6b6457e060405160405180910390a36000600460006101000a81548173ffffffffffffffffffffffffffffffffffffffff021916908373ffffffffffffffffffffffffffffffffffffffff160217905550565b6000600460009054906101000a900473ffffffffffffffffffffffffffffffffffffffff16905090565b60006008600083815260200190815260200160002060020160009054906101000a900460ff169050919050565b606060008083905084600960008973ffffffffffffffffffffffffffffffffffffffff1673ffffffffffffffffffffffffffffffffffffffff168152602001908152602001600020600088815260200190815260200160002080549050038111156113f55784600960008973ffffffffffffffffffffffffffffffffffffffff1673ffffffffffffffffffffffffffffffffffffffff1681526020019081526020016000206000888152602001908152602001600020805490500390505b60608167ffffffffffffffff8111801561140e57600080fd5b5060405190808252806020026020018201604052801561143d5781602001602082028036833780820191505090505b50905060005b828110156114d857600960008a73ffffffffffffffffffffffffffffffffffffffff1673ffffffffffffffffffffffffffffffffffffffff1681526020019081526020016000206000898152602001908152602001600020818801815481106114a857fe5b90600052602060002001548282815181106114bf57fe5b6020026020010181815250508080600101915050611443565b508082870193509350505094509492505050565b60606008600083815260200190815260200160002060010180548060200260200160405190810160405280929190818152602001828054801561157657602002820191906000526020600020906000905b82829054906101000a900461ffff1661ffff168152602001906002019060208260010104928301926001038202915080841161153d5790505b50505050509050919050565b60006008600083815260200190815260200160002060000160009054906101000a900473ffffffffffffffffffffffffffffffffffffffff169050919050565b8173ffffffffffffffffffffffffffffffffffffffff166115e161203f565b73ffffffffffffffffffffffffffffffffffffffff161415611638576040517f08c379a000000000000000000000000000000000000000000000000000000000815260040161162f90613b6d565b60405180910390fd5b806002600061164561203f565b73ffffffffffffffffffffffffffffffffffffffff1673ffffffffffffffffffffffffffffffffffffffff16815260200190815260200160002060008473ffffffffffffffffffffffffffffffffffffffff1673ffffffffffffffffffffffffffffffffffffffff16815260200190815260200160002060006101000a81548160ff0219169083151502179055508173ffffffffffffffffffffffffffffffffffffffff166116f261203f565b73ffffffffffffffffffffffffffffffffffffffff167f17307eab39ab6107e8899845ad3d59bd9653f200f220920489ca2b5937696c31836040516117379190613990565b60405180910390a35050565b6000600754905090565b6060600960008373ffffffffffffffffffffffffffffffffffffffff1673ffffffffffffffffffffffffffffffffffffffff16815260200190815260200160002060008481526020019081526020016000208054806020026020016040519081016040528092919081815260200182805480156117e957602002820191906000526020600020905b8154815260200190600101908083116117d5575b5050505050905092915050565b6000600260008473ffffffffffffffffffffffffffffffffffffffff1673ffffffffffffffffffffffffffffffffffffffff16815260200190815260200160002060008373ffffffffffffffffffffffffffffffffffffffff1673ffffffffffffffffffffffffffffffffffffffff16815260200190815260200160002060009054906101000a900460ff16905092915050565b6000600660009054906101000a900473ffffffffffffffffffffffffffffffffffffffff1673ffffffffffffffffffffffffffffffffffffffff163373ffffffffffffffffffffffffffffffffffffffff161461191c576040517f08c379a000000000000000000000000000000000000000000000000000000000815260040161191390613b4d565b60405180910390fd5b600015156008600085815260200190815260200160002060020160009054906101000a900460ff16151514611986576040517f08c379a000000000000000000000000000000000000000000000000000000000815260040161197d90613a0d565b60405180910390fd5b816008600085815260200190815260200160002060030154146119de576040517f08c379a00000000000000000000000000000000000000000000000000000000081526004016119d590613aed565b60405180910390fd5b6000600660009054906101000a900473ffffffffffffffffffffffffffffffffffffffff1673ffffffffffffffffffffffffffffffffffffffff1663e59bbab56040518163ffffffff1660e01b815260040160206040518083038186803b158015611a4857600080fd5b505afa158015611a5c573d6000803e3d6000fd5b505050506040513d601f19601f82011682018060405250810190611a80919061301f565b63ffffffff16905060005b6008600086815260200190815260200160002060010180549050811015611b145781600860008781526020019081526020016000206001018281548110611ace57fe5b90600052602060002090601091828204019190066002029054906101000a900461ffff1661ffff161115611b0757600092505050611b4a565b8080600101915050611a8b565b5060016008600086815260200190815260200160002060020160006101000a81548160ff02191690831515021790555060019150505b92915050565b600073ffffffffffffffffffffffffffffffffffffffff168473ffffffffffffffffffffffffffffffffffffffff161415611bc0576040517f08c379a0000000000000000000000000000000000000000000000000000000008152600401611bb790613aad565b60405180910390fd5b611bc861203f565b73ffffffffffffffffffffffffffffffffffffffff168573ffffffffffffffffffffffffffffffffffffffff161480611c0e5750611c0d85611c0861203f565b6117f6565b5b611c4d576040517f08c379a0000000000000000000000000000000000000000000000000000000008152600401611c4490613a8d565b60405180910390fd5b6000611c5761203f565b9050611c77818787611c6888612611565b611c7188612611565b87612047565b611cf4836040518060600160405280602a8152602001614059602a91396001600088815260200190815260200160002060008a73ffffffffffffffffffffffffffffffffffffffff1673ffffffffffffffffffffffffffffffffffffffff1681526020019081526020016000205461204f9092919063ffffffff16565b6001600086815260200190815260200160002060008873ffffffffffffffffffffffffffffffffffffffff1673ffffffffffffffffffffffffffffffffffffffff16815260200190815260200160002081905550611dab836001600087815260200190815260200160002060008873ffffffffffffffffffffffffffffffffffffffff1673ffffffffffffffffffffffffffffffffffffffff168152602001908152602001600020546120a490919063ffffffff16565b6001600086815260200190815260200160002060008773ffffffffffffffffffffffffffffffffffffffff1673ffffffffffffffffffffffffffffffffffffffff168152602001908152602001600020819055508473ffffffffffffffffffffffffffffffffffffffff168673ffffffffffffffffffffffffffffffffffffffff168273ffffffffffffffffffffffffffffffffffffffff167fc3d58168c5ae7397731d063d5bbf3d657854427343f4c083240f7aacaa2d0f628787604051611e75929190613c08565b60405180910390a4611e8b818787878787612681565b505050505050565b611e9b61203f565b73ffffffffffffffffffffffffffffffffffffffff16611eb96112e0565b73ffffffffffffffffffffffffffffffffffffffff1614611f0f576040517f08c379a0000000000000000000000000000000000000000000000000000000008152600401611f0690613b2d565b60405180910390fd5b600073ffffffffffffffffffffffffffffffffffffffff168173ffffffffffffffffffffffffffffffffffffffff161415611f7f576040517f08c379a0000000000000000000000000000000000000000000000000000000008152600401611f7690613a4d565b60405180910390fd5b8073ffffffffffffffffffffffffffffffffffffffff16600460009054906101000a900473ffffffffffffffffffffffffffffffffffffffff1673ffffffffffffffffffffffffffffffffffffffff167f8be0079c531659141344cd1fd0a4f28419497f9722a3daafe3b4186f6b6457e060405160405180910390a380600460006101000a81548173ffffffffffffffffffffffffffffffffffffffff021916908373ffffffffffffffffffffffffffffffffffffffff16021790555050565b600033905090565b505050505050565b6000838311158290612097576040517f08c379a000000000000000000000000000000000000000000000000000000000815260040161208e91906139ab565b60405180910390fd5b5082840390509392505050565b6000808284019050838110156120ef576040517f08c379a00000000000000000000000000000000000000000000000000000000081526004016120e690613a6d565b60405180910390fd5b8091505092915050565b6121188473ffffffffffffffffffffffffffffffffffffffff16612851565b156122c1578373ffffffffffffffffffffffffffffffffffffffff1663bc197c8187878686866040518663ffffffff1660e01b815260040161215e959493929190613823565b602060405180830381600087803b15801561217857600080fd5b505af19250505080156121a957506040513d601f19601f820116820180604052508101906121a69190612f2c565b60015b612238576121b5613f18565b806121c057506121fd565b806040517f08c379a00000000000000000000000000000000000000000000000000000000081526004016121f491906139ab565b60405180910390fd5b6040517f08c379a000000000000000000000000000000000000000000000000000000000815260040161222f906139cd565b60405180910390fd5b63bc197c8160e01b7bffffffffffffffffffffffffffffffffffffffffffffffffffffffff1916817bffffffffffffffffffffffffffffffffffffffffffffffffffffffff1916146122bf576040517f08c379a00000000000000000000000000000000000000000000000000000000081526004016122b6906139ed565b60405180910390fd5b505b505050505050565b6000808360ff1614156122df5760009050612342565b600082840290508260ff168460ff168260ff16816122f957fe5b0460ff161461233d576040517f08c379a000000000000000000000000000000000000000000000000000000000815260040161233490613b0d565b60405180910390fd5b809150505b92915050565b60008082840190508360ff168160ff161015612399576040517f08c379a000000000000000000000000000000000000000000000000000000000815260040161239090613a6d565b60405180910390fd5b8091505092915050565b600073ffffffffffffffffffffffffffffffffffffffff168473ffffffffffffffffffffffffffffffffffffffff161415612413576040517f08c379a000000000000000000000000000000000000000000000000000000000815260040161240a90613bcd565b60405180910390fd5b8151835114612457576040517f08c379a000000000000000000000000000000000000000000000000000000000815260040161244e90613bad565b60405180910390fd5b600061246161203f565b905061247281600087878787612047565b60005b845181101561257b576125076001600087848151811061249157fe5b6020026020010151815260200190815260200160002060008873ffffffffffffffffffffffffffffffffffffffff1673ffffffffffffffffffffffffffffffffffffffff168152602001908152602001600020548583815181106124f157fe5b60200260200101516120a490919063ffffffff16565b6001600087848151811061251757fe5b6020026020010151815260200190815260200160002060008873ffffffffffffffffffffffffffffffffffffffff1673ffffffffffffffffffffffffffffffffffffffff168152602001908152602001600020819055508080600101915050612475565b508473ffffffffffffffffffffffffffffffffffffffff16600073ffffffffffffffffffffffffffffffffffffffff168273ffffffffffffffffffffffffffffffffffffffff167f4a39dc06d4c0dbc64b70af90fd698a233a518aa5d07e595d983b8c0526c8f7fb87876040516125f3929190613929565b60405180910390a461260a816000878787876120f9565b5050505050565b606080600167ffffffffffffffff8111801561262c57600080fd5b5060405190808252806020026020018201604052801561265b5781602001602082028036833780820191505090505b509050828160008151811061266c57fe5b60200260200101818152505080915050919050565b6126a08473ffffffffffffffffffffffffffffffffffffffff16612851565b15612849578373ffffffffffffffffffffffffffffffffffffffff1663f23a6e6187878686866040518663ffffffff1660e01b81526004016126e695949392919061388b565b602060405180830381600087803b15801561270057600080fd5b505af192505050801561273157506040513d601f19601f8201168201806040525081019061272e9190612f2c565b60015b6127c05761273d613f18565b806127485750612785565b806040517f08c379a000000000000000000000000000000000000000000000000000000000815260040161277c91906139ab565b60405180910390fd5b6040517f08c379a00000000000000000000000000000000000000000000000000000000081526004016127b7906139cd565b60405180910390fd5b63f23a6e6160e01b7bffffffffffffffffffffffffffffffffffffffffffffffffffffffff1916817bffffffffffffffffffffffffffffffffffffffffffffffffffffffff191614612847576040517f08c379a000000000000000000000000000000000000000000000000000000000815260040161283e906139ed565b60405180910390fd5b505b505050505050565b600080823b905060008111915050919050565b82805482825590600052602060002090600f016010900481019282156128fd5791602002820160005b838211156128cd57835183826101000a81548161ffff021916908361ffff160217905550926020019260020160208160010104928301926001030261288d565b80156128fb5782816101000a81549061ffff02191690556002016020816001010492830192600103026128cd565b505b50905061290a919061290e565b5090565b5b8082111561292757600081600090555060010161290f565b5090565b60008135905061293a81613fce565b92915050565b600082601f83011261295157600080fd5b813561296461295f82613ca0565b613c6f565b9150818183526020840193506020810190508385602084028201111561298957600080fd5b60005b838110156129b9578161299f888261292b565b84526020840193506020830192505060018101905061298c565b5050505092915050565b60008083601f8401126129d557600080fd5b8235905067ffffffffffffffff8111156129ee57600080fd5b602083019150836020820283011115612a0657600080fd5b9250929050565b600082601f830112612a1e57600080fd5b8135612a31612a2c82613ccc565b613c6f565b91508181835260208401935060208101905083856020840282011115612a5657600080fd5b60005b83811015612a865781612a6c8882612b23565b845260208401935060208301925050600181019050612a59565b5050505092915050565b600081359050612a9f81613fe5565b92915050565b600081359050612ab481613ffc565b92915050565b600081519050612ac981613ffc565b92915050565b600082601f830112612ae057600080fd5b8135612af3612aee82613cf8565b613c6f565b91508082526020830160208301858383011115612b0f57600080fd5b612b1a838284613eb6565b50505092915050565b600081359050612b3281614013565b92915050565b600081519050612b4781614013565b92915050565b600081519050612b5c8161402a565b92915050565b600081359050612b7181614041565b92915050565b600060208284031215612b8957600080fd5b6000612b978482850161292b565b91505092915050565b60008060408385031215612bb357600080fd5b6000612bc18582860161292b565b9250506020612bd28582860161292b565b9150509250929050565b600080600080600060a08688031215612bf457600080fd5b6000612c028882890161292b565b9550506020612c138882890161292b565b945050604086013567ffffffffffffffff811115612c3057600080fd5b612c3c88828901612a0d565b935050606086013567ffffffffffffffff811115612c5957600080fd5b612c6588828901612a0d565b925050608086013567ffffffffffffffff811115612c8257600080fd5b612c8e88828901612acf565b9150509295509295909350565b600080600080600060a08688031215612cb357600080fd5b6000612cc18882890161292b565b9550506020612cd28882890161292b565b9450506040612ce388828901612b23565b9350506060612cf488828901612b23565b925050608086013567ffffffffffffffff811115612d1157600080fd5b612d1d88828901612acf565b9150509295509295909350565b60008060408385031215612d3d57600080fd5b6000612d4b8582860161292b565b9250506020612d5c85828601612a90565b9150509250929050565b60008060408385031215612d7957600080fd5b6000612d878582860161292b565b9250506020612d9885828601612b23565b9150509250929050565b60008060008060808587031215612db857600080fd5b6000612dc68782880161292b565b9450506020612dd787828801612b23565b9350506040612de887828801612b23565b9250506060612df987828801612b23565b91505092959194509250565b60008060008060008060a08789031215612e1e57600080fd5b6000612e2c89828a0161292b565b9650506020612e3d89828a01612b23565b9550506040612e4e89828a01612b62565b945050606087013567ffffffffffffffff811115612e6b57600080fd5b612e7789828a016129c3565b93509350506080612e8a89828a01612b62565b9150509295509295509295565b60008060408385031215612eaa57600080fd5b600083013567ffffffffffffffff811115612ec457600080fd5b612ed085828601612940565b925050602083013567ffffffffffffffff811115612eed57600080fd5b612ef985828601612a0d565b9150509250929050565b600060208284031215612f1557600080fd5b6000612f2384828501612aa5565b91505092915050565b600060208284031215612f3e57600080fd5b6000612f4c84828501612aba565b91505092915050565b600060208284031215612f6757600080fd5b6000612f7584828501612b23565b91505092915050565b600060208284031215612f9057600080fd5b6000612f9e84828501612b38565b91505092915050565b60008060408385031215612fba57600080fd5b6000612fc885828601612b23565b9250506020612fd98582860161292b565b9150509250929050565b60008060408385031215612ff657600080fd5b600061300485828601612b23565b925050602061301585828601612b23565b9150509250929050565b60006020828403121561303157600080fd5b600061303f84828501612b4d565b91505092915050565b600061305483836137cc565b60208301905092915050565b600061306c83836137db565b60208301905092915050565b61308181613e05565b82525050565b600061309282613d48565b61309c8185613d8e565b93506130a783613d28565b8060005b838110156130d85781516130bf8882613048565b97506130ca83613d74565b9250506001810190506130ab565b5085935050505092915050565b60006130f082613d53565b6130fa8185613d9f565b935061310583613d38565b8060005b8381101561313657815161311d8882613060565b975061312883613d81565b925050600181019050613109565b5085935050505092915050565b61314c81613e17565b82525050565b600061315d82613d5e565b6131678185613db0565b9350613177818560208601613ec5565b61318081613efa565b840191505092915050565b600061319682613d69565b6131a08185613dc1565b93506131b0818560208601613ec5565b6131b981613efa565b840191505092915050565b60006131d1603483613dc1565b91507f455243313135353a207472616e7366657220746f206e6f6e204552433131353560008301527f526563656976657220696d706c656d656e7465720000000000000000000000006020830152604082019050919050565b6000613237602883613dc1565b91507f455243313135353a204552433131353552656365697665722072656a6563746560008301527f6420746f6b656e730000000000000000000000000000000000000000000000006020830152604082019050919050565b600061329d601683613dc1565b91507f5469636b657420616c726561647920636c61696d6564000000000000000000006000830152602082019050919050565b60006132dd602b83613dc1565b91507f455243313135353a2062616c616e636520717565727920666f7220746865207a60008301527f65726f20616464726573730000000000000000000000000000000000000000006020830152604082019050919050565b6000613343602683613dc1565b91507f4f776e61626c653a206e6577206f776e657220697320746865207a65726f206160008301527f64647265737300000000000000000000000000000000000000000000000000006020830152604082019050919050565b60006133a9601b83613dc1565b91507f536166654d6174683a206164646974696f6e206f766572666c6f7700000000006000830152602082019050919050565b60006133e9602983613dc1565b91507f455243313135353a2063616c6c6572206973206e6f74206f776e6572206e6f7260008301527f20617070726f76656400000000000000000000000000000000000000000000006020830152604082019050919050565b600061344f602583613dc1565b91507f455243313135353a207472616e7366657220746f20746865207a65726f20616460008301527f64726573730000000000000000000000000000000000000000000000000000006020830152604082019050919050565b60006134b5603283613dc1565b91507f455243313135353a207472616e736665722063616c6c6572206973206e6f742060008301527f6f776e6572206e6f7220617070726f76656400000000000000000000000000006020830152604082019050919050565b600061351b601b83613dc1565b91507f5469636b6574206e6f7420666f722074686973206c6f747465727900000000006000830152602082019050919050565b600061355b602183613dc1565b91507f536166654d6174683a206d756c7469706c69636174696f6e206f766572666c6f60008301527f77000000000000000000000000000000000000000000000000000000000000006020830152604082019050919050565b60006135c1602083613dc1565b91507f4f776e61626c653a2063616c6c6572206973206e6f7420746865206f776e65726000830152602082019050919050565b6000613601601383613dc1565b91507f4f6e6c79204c6f74746f2063616e206d696e74000000000000000000000000006000830152602082019050919050565b6000613641602983613dc1565b91507f455243313135353a2073657474696e6720617070726f76616c2073746174757360008301527f20666f722073656c6600000000000000000000000000000000000000000000006020830152604082019050919050565b60006136a7602983613dc1565b91507f455243313135353a206163636f756e747320616e6420696473206c656e67746860008301527f206d69736d6174636800000000000000000000000000000000000000000000006020830152604082019050919050565b600061370d602883613dc1565b91507f455243313135353a2069647320616e6420616d6f756e7473206c656e6774682060008301527f6d69736d617463680000000000000000000000000000000000000000000000006020830152604082019050919050565b6000613773602183613dc1565b91507f455243313135353a206d696e7420746f20746865207a65726f2061646472657360008301527f73000000000000000000000000000000000000000000000000000000000000006020830152604082019050919050565b6137d581613e4f565b82525050565b6137e481613e7d565b82525050565b6137f381613e7d565b82525050565b61380281613ea4565b82525050565b600060208201905061381d6000830184613078565b92915050565b600060a0820190506138386000830188613078565b6138456020830187613078565b818103604083015261385781866130e5565b9050818103606083015261386b81856130e5565b9050818103608083015261387f8184613152565b90509695505050505050565b600060a0820190506138a06000830188613078565b6138ad6020830187613078565b6138ba60408301866137ea565b6138c760608301856137ea565b81810360808301526138d98184613152565b90509695505050505050565b600060208201905081810360008301526138ff8184613087565b905092915050565b6000602082019050818103600083015261392181846130e5565b905092915050565b6000604082019050818103600083015261394381856130e5565b9050818103602083015261395781846130e5565b90509392505050565b6000604082019050818103600083015261397a81856130e5565b905061398960208301846137ea565b9392505050565b60006020820190506139a56000830184613143565b92915050565b600060208201905081810360008301526139c5818461318b565b905092915050565b600060208201905081810360008301526139e6816131c4565b9050919050565b60006020820190508181036000830152613a068161322a565b9050919050565b60006020820190508181036000830152613a2681613290565b9050919050565b60006020820190508181036000830152613a46816132d0565b9050919050565b60006020820190508181036000830152613a6681613336565b9050919050565b60006020820190508181036000830152613a868161339c565b9050919050565b60006020820190508181036000830152613aa6816133dc565b9050919050565b60006020820190508181036000830152613ac681613442565b9050919050565b60006020820190508181036000830152613ae6816134a8565b9050919050565b60006020820190508181036000830152613b068161350e565b9050919050565b60006020820190508181036000830152613b268161354e565b9050919050565b60006020820190508181036000830152613b46816135b4565b9050919050565b60006020820190508181036000830152613b66816135f4565b9050919050565b60006020820190508181036000830152613b8681613634565b9050919050565b60006020820190508181036000830152613ba68161369a565b9050919050565b60006020820190508181036000830152613bc681613700565b9050919050565b60006020820190508181036000830152613be681613766565b9050919050565b6000602082019050613c0260008301846137ea565b92915050565b6000604082019050613c1d60008301856137ea565b613c2a60208301846137ea565b9392505050565b6000606082019050613c4660008301866137ea565b613c5360208301856137f9565b8181036040830152613c6581846130e5565b9050949350505050565b6000604051905081810181811067ffffffffffffffff82111715613c9657613c95613ef8565b5b8060405250919050565b600067ffffffffffffffff821115613cbb57613cba613ef8565b5b602082029050602081019050919050565b600067ffffffffffffffff821115613ce757613ce6613ef8565b5b602082029050602081019050919050565b600067ffffffffffffffff821115613d1357613d12613ef8565b5b601f19601f8301169050602081019050919050565b6000819050602082019050919050565b6000819050602082019050919050565b600081519050919050565b600081519050919050565b600081519050919050565b600081519050919050565b6000602082019050919050565b6000602082019050919050565b600082825260208201905092915050565b600082825260208201905092915050565b600082825260208201905092915050565b600082825260208201905092915050565b60008085851115613de257600080fd5b83861115613def57600080fd5b6020850283019150848603905094509492505050565b6000613e1082613e5d565b9050919050565b60008115159050919050565b60007fffffffff0000000000000000000000000000000000000000000000000000000082169050919050565b600061ffff82169050919050565b600073ffffffffffffffffffffffffffffffffffffffff82169050919050565b6000819050919050565b600063ffffffff82169050919050565b600060ff82169050919050565b6000613eaf82613e97565b9050919050565b82818337600083830152505050565b60005b83811015613ee3578082015181840152602081019050613ec8565b83811115613ef2576000848401525b50505050565bfe5b6000601f19601f8301169050919050565b60008160e01c9050919050565b600060443d1015613f2857613fcb565b60046000803e613f39600051613f0b565b6308c379a08114613f4a5750613fcb565b60405160043d036004823e80513d602482011167ffffffffffffffff82111715613f7657505050613fcb565b808201805167ffffffffffffffff811115613f95575050505050613fcb565b8060208301013d8501811115613fb057505050505050613fcb565b613fb982613efa565b60208401016040528296505050505050505b90565b613fd781613e05565b8114613fe257600080fd5b50565b613fee81613e17565b8114613ff957600080fd5b50565b61400581613e23565b811461401057600080fd5b50565b61401c81613e7d565b811461402757600080fd5b50565b61403381613e87565b811461403e57600080fd5b50565b61404a81613e97565b811461405557600080fd5b5056fe455243313135353a20696e73756666696369656e742062616c616e636520666f72207472616e73666572a2646970667358221220fca48df3f69e67f23d4c0edc3e10760142e811e4316ad6ada93da4be59372a8b64736f6c63430007030033",
  "linkReferences": {},
  "deployedLinkReferences": {}
}